:020000040800F2
:10000000B02D02207D020008B15C0008494C0008B8
:10001000AD5C0008BD1200089D9D000800000000B6
:10002000000000000000000000000000C501000802
:10003000713000080000000019020008E16D00089E
:10004000A1020008A1020008A1020008A102000804
:10005000A1020008A1020008A1020008A1020008F4
:10006000A1020008A1020008A1020008A1020008E4
:10007000A1020008A1020008A1020008A1020008D4
:10008000A1020008A1020008A1020008A1020008C4
:1000900025140008A1020008A1020008A10200081E
:1000A000A1020008A1020008A1020008A1020008A4
:1000B000A1020008A1020008A1020008A102000894
:1000C000A1020008A1020008A1020008A102000884
:1000D000A1020008AD7A0008A1020008917B000887
:1000E000A1020008A1020008515D0008A102000859
:1000F000A1020008A1020008A1020008A102000854
:10010000A1020008A1020008A1020008A102000843
:10011000A1020008A1020008A1020008A102000833
:10012000A1020008A1020008A1020008A102000823
:10013000A1020008A1020008A1020008A102000813
:10014000BD150008A1020008A1020008415D0008D9
:10015000A1020008A1020008E92C0008B17D0008F6
:10016000A1020008A1020008A1020008A1020008E3
:10017000A1020008A1020008A1020008000000007E
:10018000A1020008A1020008A1020008297A0008C3
:10019000A1020008A1020008A1020008A1020008B3
:1001A0000000000000000000A1020008DFF810D0ED
:1001B00000F032FC0048004759BB0008AFF3008054
:1001C000B02D02202A4B19680868B0E8F04F80F380
:1001D0000988BFF36F8F4FF0000080F311887047DC
:1001E0000000000006480068006880F3088862B6D6
:1001F00061B6BFF34F8FBFF36F8F00DF00BF00BF4B
:1002000008ED00E0DFF80C00016841F470010160C6
:10021000704700BF88ED00E0EFF30980BFF36F8FF8
:10022000134B1A681EF0100F08BF20ED108A20E94A
:10023000F04F106008B44FF0100080F31188BFF346
:100240004F8FBFF36F8F0DF02BFC4FF0000080F34A
:10025000118808BC19680868B0E8F04F1EF0100F4C
:1002600008BFB0EC108A80F30988BFF36F8F704726
:1002700040000020EFF30580704700000948016846
:1002800041F4700101600848804708480047FEE7D4
:10029000FEE7FEE7FEE7FEE7FEE7FEE7FEE7FEE736
:1002A000FEE7000088ED00E0F56D0008AD010008F4
:1002B0009FED1A1AF5EE000A40EE010ABDEEE00AC3
:1002C000F5EEC00A10EE100AF1EE10FA38BF401E2B
:1002D00000EE100A1349F7EE001AB8EEC00A30EE2D
:1002E000C00ADFED0F0A20EE200AFCEEC00A10EE75
:1002F000900AC0F3080000EE900A01EB8000F8EECF
:10030000600A90ED011A70EE600A90ED000A71EE3D
:10031000E01A21EE800A00EE810A704783F9223E3E
:10032000000000448CEE0008DFED190AB5EEC00AAB
:1003300060EE200ABDEEE01A11EE100AF1EE10FA9E
:1003400038BF401E00EE100A1349F7EE001AB8EE4F
:10035000C00A30EEC00ADFED0F0A60EE200ABCEEE4
:10036000E00A10EE100AC0F3080000EE100A01EBDC
:100370008000B8EE400A90ED011A70EEC00A90EDD0
:10038000000A71EEE01A21EE800A00EE810A704741
:1003900083F9223E000000448CEE000840EA01038D
:1003A0009B0703D009E008C9121F08C0042AFAD22B
:1003B00003E011F8013B00F8013B521EF9D27047EF
:1003C000D2B201E000F8012B491EFBD27047002297
:1003D000F6E710B513460A4604461946FFF7F0FF44
:1003E000204610BD2DE9FE4F804681EA0300C00F74
:1003F0000C46009021F0004123F00045B8EB0200CC
:10040000A94105D24046214690461C460B4602466D
:1004100023F00040104347D0270DC7F30A00C3F371
:100420000A510290401A019040286BDAC3F313007E
:1004300040F4801B0098924620B10023D2EB030ABF
:1004400063EB0B0B01985946C0F14002504600F097
:1004500016FA06460D4650465946019A00F01EFA15
:1004600010EB08006141002487EA115284EAE77327
:100470001A4340D0009A62B3019A012A4FEA075208
:1004800015DC001B61EB02014FF0004202EA07524B
:10049000CDE90042001C41F5801132462B4600F0A8
:1004A00055FA03B0BDE8F08F40462146F9E7001B3E
:1004B00061EB0201001C41F5801300185B4120181C
:1004C000A2F5001747EB030140EAD570B6196D415C
:1004D00011E06D084FEA360645EAC0754FEA07524B
:1004E000001B61EB0201001C41F5801149084FEA35
:1004F00030000019514132462B4603B0BDE8F04FA1
:1005000000F015BA0098012240000023D0EB02024F
:1005100063EBE073009821464FEAE074B8EB00000B
:1005200061EB0401E9E783F000435BE781F0004100
:1005300058E72DE9FE4F81EA030404F0004421F05E
:10054000004100944FF0000B23F0004350EA0104F7
:100550005ED052EA03045BD0C3F30A54C1F30A55D8
:100560002C44A4F2F3340194A0FB0254C1F3130110
:1005700041F48011C3F3130343F4801301FB0244DD
:1005800000FB034E840A970A44EA815447EA8357E2
:10059000A4FB076802958D0A05FB07854FEA932C9B
:1005A00004FB0C542705029D4FEA065847EA16370C
:1005B000B5EB08056EEB070C870E920E47EA811724
:1005C00042EA8312A7FB0201B6EB0B0164EB0004C5
:1005D0002B0D43EA0C335E1844EB1C50DA465146AF
:1005E000E7FB0201C5F313044FEA0B3343EA14534C
:1005F0004FEA0432019C43EA0603A4F10C0402947E
:10060000009CCDE900B400F0A1F903B0BDE8F08F83
:1006100000200146F9E72DE9F04D81EA030404F0DA
:10062000004B21F0004514464FF0000A23F0004132
:1006300050EA050220D054EA01021DD0C5F30A5742
:100640000246C5F31303C1F31300C1F30A5640F485
:10065000801543F48013A7EB0608101BD64608F25A
:10066000FD3873EB050002D308F1010801E0921890
:100670005B41B8F1000F03DA00200146BDE8F08DC0
:1006800000204FF48011064684460EE0171B73EBE2
:10069000050705D3121B63EB050306434CEA010C67
:1006A00049084FEA300092185B4150EA0107EDD14A
:1006B00052EA030012D082EA040083EA05010843EB
:1006C00005D0101BAB4106D20122002306E0002218
:1006D0004FF0004302E06FF0010253101AEB0600E6
:1006E0004CEB085110EB0A0041EB0B01BDE8F04D5B
:1006F00000F01DB90EB5C10F80EAE0700844CA07CA
:10070000002140F233438DE80E000A460B4600F00C
:100710001DF903B000BD0EB540F233410291002136
:10072000CDE900110A460B4600F010F903B000BDF8
:1007300000F0004230F000400AD0C10D01F56071B8
:10074000C0F3160042EA0151C20840071143704746
:10075000002001467047000030B5041E71F100040E
:1007600004DB4FF00044404264EB0101141E73F1BE
:10077000000405DB1C464FF00043524263EB0403C8
:100780008B4208BF824230BD30B5041E71F10004B7
:1007900004DB4FF00044404264EB0101141E73F18E
:1007A000000405DB1C464FF00043524263EB040398
:1007B000994208BF904230BD01F0004330B421F0AF
:1007C000004150EA010206D00A0DA2F56072C1F3A1
:1007D0001301002A02DC30BC00207047440F44EAB9
:1007E000C104C100E01830BC00EBC25000F068B892
:1007F00030B50B46014600202022012409E021FAF1
:1008000002F59D4205D303FA02F5491B04FA02F5ED
:100810002844151EA2F10102F1DC30BD2DE9F05F84
:100820000546002092469B4688460646814640245F
:100830001BE0284641464746224600F0FFF8534653
:100840005A46C01A914110D311461846224600F06C
:1008500016F82D1A67EB01084F46224601200021A9
:1008600000F00DF817EB00094E41201EA4F1010421
:10087000DFDC484631462A464346BDE8F09F202A41
:1008800004DB203A00FA02F1002070479140C2F1E7
:10089000200320FA03F3194390407047202A06DB17
:1008A000CB17203A41FA02F043EAE07306E041FA3E
:1008B00002F3D040C2F1200291400843194670472C
:1008C0000029A8BF7047401C490008BF20F0010064
:1008D000704710B4B0FA80FC00FA0CF050EA010442
:1008E00004BF10BC704749B1CCF1200421FA04F4D4
:1008F00011FA0CF118BF012121430843A3EB0C01AD
:10090000CB1D4FEA00614FEA102042BF002010BC0F
:10091000704700EBC35010440029A4BF10BC7047BF
:10092000401C490008BF20F0010010BC704710B502
:10093000141E73F1000408DA401C41F10001921802
:100940005B411A4301D120F0010010BD2DE9F04DAB
:1009500092469B4611B1B1FA81F202E0B0FA80F200
:1009600020329046FFF78BFF04460F4640EA0A000C
:1009700041EA0B0153465A46084313D0114653EA45
:10098000010019D0C8F14002504600F057F8054662
:100990000E46504659464246FFF771FF084305D0C0
:1009A000012004E020463946BDE8F08D00200543D3
:1009B00046EAE0762C4337430A986305E40AA0EB45
:1009C00008000022FD0A44EA47540A3002D50020FC
:1009D0000146E9E7010510196941DDE908450019FB
:1009E0006941BDE8F04DA2E7C1F30A52C1F313011A
:1009F00040F2FF3341F480119A4202DA00200146AE
:100A0000704740F233439A42A2F2334202DC524230
:100A100000F014B8FFF733BF064C074D06E0E0685E
:100A200040F0010394E8070098471034AC42F6D335
:100A3000FFF7C0FB30F7000850F70008202A04DB5E
:100A4000203A21FA02F00021704721FA02F3D04047
:100A5000C2F12002914008431946704770B58C18C6
:100A600010F8015B15F0070301D110F8013B2A11C2
:100A700006D110F8012B03E010F8016B01F8016BAF
:100A80005B1EF9D12B0705D40023521E0DD401F8AB
:100A9000013BFAE710F8013BCB1A921C03E013F874
:100AA000015B01F8015B521EF9D5A142D8D30020A9
:100AB00070BD21B1826842F00102826003E0826869
:100AC00022F00102826070470021084A1168084A3A
:100AD0001140D0E900231A4383681A43C3681A43BC
:100AE0001143044AC2F80413704700000423014074
:100AF000E030FCFF0020014030B50246002000231A
:100B00005068104C20400D790C6844EA05242043BD
:100B1000506090680C4C2040D1E903542C438D6800
:100B20002C434D7944EA450420439060D06A20F478
:100B300070000C7D641EE4B2234340EA0350D0628F
:100B400030BD0000FFFEFFFCFDF7FFC0F0B504461E
:100B50000D4600200021092D11DDE068A5F10A06EF
:100B600006EB4607072606FA07F18843A5F10A06B1
:100B700006EB460603FA06F10843E0600CE0206944
:100B800005EB4507072606FA07F1884305EB4506FE
:100B900003FA06F108432061072A0FDA606B561E3C
:100BA00006EB86071F2606FA07F18843561E06EB5A
:100BB000860605FA06F10843606322E00D2A0FDA83
:100BC000206BD61F06EB86071F2606FA07F188431F
:100BD000D61F06EB860605FA06F10843206310E0EF
:100BE000E06AA2F10D0606EB86071F2606FA07F15A
:100BF0008843A2F10D0606EB860605FA06F10843C6
:100C0000E062F0BD816841F0804181607047000082
:100C100038B10849096841F40001074AC2F80413D1
:100C200006E00449096821F40001034AC2F80413EC
:100C300070470000042301400020014010B52DED55
:100C4000028BB0EE408AB0EE480A09F0EFFBBDEC33
:100C5000028B10BD10B52DED028BB0EE408AF0EE88
:100C6000608AF0EE680AB0EE480A09F075FCBDEC47
:100C7000028B10BD10B52DED028BB0EE408AB0EEA8
:100C8000480AFFF715FBBDEC028B10BDF0EE400AE1
:100C9000F5EEC00AF1EE10FA02DDB0EE600A704720
:100CA000B1EE600AFBE7000018B19FED020A80ED8B
:100CB000000A7047000000007047000070B52DED7D
:100CC0000C8B84B006460C4615469FED990AF0EE53
:100CD000408A9FED970AB0EE409A9FED950AF0EE9C
:100CE00040BA9FED930AF0EE409A9FED910AB0EE64
:100CF00040AA0EB104B11DB904B0BDEC0C8B70BD9F
:100D00008C48FFF7D1FF8C48FFF7D6FF8A48D0ED1B
:100D1000000A9FED8A1A60EE810AB0EE600A00F0C8
:100D200039F9F0EE408A28EEA80AF0EE408A8248AF
:100D3000D0ED000AB0EE001A60EE810A9FED7F1A36
:100D400060EE810AB0EE600A00F024F9B0EE409A3D
:100D500029EE090AB0EE409ADFED790AB7EE000AF3
:100D600000EEA80ADFED770A00EEC90ADFED760A89
:100D700020EE200A754880ED000A6E4890ED000ACA
:100D8000DFED730A80EE201AB7EE000A31EE000A9A
:100D900020EE000A6D48D0ED000A80EE801A6D4802
:100DA00080ED001A94ED000AB5EEC00AF1EE10FADB
:100DB0000DD194ED010AB5EEC00AF1EE10FA06D19C
:100DC00094ED020AB5EEC00AF1EE10FA46D09FED9E
:100DD000580AB0EE408A0020019002900390D4EDB2
:100DE000000A60EEA00A94ED011AD4ED011A41EE5A
:100DF000210A94ED021AD4ED021A41EE210AB0EE56
:100E0000600A00F0A9F8B0EE408A94ED000A20EEE6
:100E1000080A8DED010A94ED010A20EE080A8DED15
:100E2000020A94ED020A20EE080A8DED030ADDEDB8
:100E3000010AF1EE600AB0EE600AFFF7FFFEF0EE85
:100E4000409A9DED031AF0EE410A9DED021AB0EEB4
:100E5000410AFFF7FFFEB0EE40AA07E09FED340A1B
:100E6000F0EE409A9FED320AB0EE40AA95ED000AEE
:100E7000B5EEC00AF1EE10FA0DD195ED010AB5EE0E
:100E8000C00AF1EE10FA06D195ED020AB5EEC00ADD
:100E9000F1EE10FA3CD0B0EE690A00F07BF8B0EE4B
:100EA000408AB0EE690AFFF7E5FEB0EE40DAB0EE38
:100EB0004A0A00F06FF8F0EE40AAB0EE4A0AFFF7D7
:100EC000D9FEB0EE40BA28EE2A0AD5ED010A20EE8E
:100ED000200AD5ED000A0DEE200A68EE0B0A95ED0A
:100EE000021A00EE810AB0EE40CA95ED010A20EE2A
:100EF0000B0AD5ED020A0AEEE00AF0EE40CAF0EE67
:100F00006C0AB0EE4C0AFFF7A5FEF0EE40BA03E023
:100F10009FED070AF0EE40BAB0EE4A1AF0EE690A09
:100F2000B0EE6B0A30460AF0A1FA00BFE4E600001A
:100F300000000000D4030020D803002035FA8E3CC6
:100F4000C1BFAD3B9DF8C5362F7C1C41DC030020A2
:100F5000506CC24AE0030020F0EE400AF6EE001AA0
:100F600060EEA11AB0EE611AB0EE600A10EE100A3F
:100F70000749A1EB600000EE100A21EE002AF7EE0F
:100F8000081A42EE401A61EE801AB0EE610A70470C
:100F9000DF59375F10B52DED028BB0EE408AB0EE11
:100FA000480AFFF7C1F9BDEC028B10BD2DE9F041F5
:100FB0002DED028B9AB00546B0EE408A0E461746DC
:100FC000984600201790189019901490159016903C
:100FD0004DB146B13FB1B8F1000F04D0B5EEC08AB3
:100FE000F1EE10FA05D100201AB0BDEC028BBDE87D
:100FF000F08196ED000A8DED170A96ED010A8DED50
:10100000180A96ED020A8DED190A97ED000A8DED8A
:10101000140A97ED010A8DED150A97ED020A8DED80
:10102000160A17AA14A928460AF072F8402104A843
:10103000FFF7CDF90020009001900290039000246A
:1010400017A904A80BF0EAFF00BF30E004A800EBEA
:10105000041090ED000AD5ED000A20EE200A04A845
:1010600000EB0410D0ED010A95ED011A00EE810AA3
:1010700004A800EB0410D0ED020A95ED021A00EE70
:10108000810A04A800EB0410D0ED030A95ED031AC1
:1010900000EE810A20EE080AF0EE000A80EE201A27
:1010A000684600EB840080ED001A601CC4B2042C7A
:1010B000CCDB002410E005EB840090ED000A6846CC
:1010C00000EB8400D0ED000A30EE200A05EB84002E
:1010D00080ED000A601CC4B2042CECDB28460BF047
:1010E000A1FE012080E710B506F0D2FB04F0DCFF82
:1010F00010BDF0EE400AF5EEC00AF1EE10FA02DB88
:10110000B0EE600A7047F5EEC00AF1EE10FA02D2B6
:10111000B1EE600AF6E7B0EE600AF3E790ED001A70
:10112000B4EEC01AF1EE10FA02DD80ED000A08E01C
:1011300090ED001AB4EEE01AF1EE10FA01D2C0ED13
:10114000000A704730B5B0F90040B0F90850AC4221
:101150000CDAB0F9004004F50054B0F90850611BF6
:10116000B0F90040B0F90850621B14E0B0F900403B
:10117000B0F90850AC4202D1002100220BE0B0F9D6
:101180000040A4F50054B0F90850611BB0F90040CC
:10119000B0F90850621B002901DD0C4600E04C420A
:1011A000002A01DD154600E05542AC4201DC0B4649
:1011B00000E01346C4681C44C4600488048130BD48
:1011C00010B52DED068BB0EE408A18EE100AFFF731
:1011D000AFFA41EC190B9FED1F0B53EC102BFFF7EF
:1011E000D3FA12D818EE100AFFF7A2FA41EC1A0B44
:1011F0009FED1A0B53EC102BFFF795F941EC190BEF
:10120000FFF7DAFA08EE100A1EE018EE100AFFF7F0
:101210008FFA41EC190B9FED130B53EC102BFFF7DA
:101220009BFA11D818EE100AFFF782FA41EC1A0B5C
:101230009FED0A0B53EC102BFFF7D4F841EC190B80
:10124000FFF7BAFA08EE100AB0EE480ABDEC068BBA
:1012500010BD00004AD8124DFB2109404AD8124D5A
:10126000FB2119404AD8124DFB2109C0B0EE401AAB
:1012700071EE601AB0EE610ADFED0D1AB4EEE10A0C
:10128000F1EE10FA06DDDFED0B1A70EE611AB0EE2A
:10129000610A0CE0DFED081AB4EEE10AF1EE10FA93
:1012A00005D2DFED041A70EE211AB0EE610A704724
:1012B000DA0F4940DA0FC940DA0F49C000BFFEE734
:1012C00000B58BB00121082004F03CFF0121480645
:1012D00004F058FF0121480604F064FF00214FF09C
:1012E000007004F05FFF0320099002208DF82800B1
:1012F00000208DF82A0003208DF8290001208DF8A8
:101300002B0009A92D4801F0C1FE092200212B481C
:1013100001F004FF09220121284801F0FFFE00200E
:101320008DF81E0001208DF81F0000208DF8200090
:101330008DF821008DF822008DF823008DF81A0019
:101340008DF81B0005208DF81C0001208DF81D0074
:101350000520ADF8180006A9194800F0B8FA0020D9
:101360008DF812008DF8130001208DF81400002074
:10137000ADF80800ADF80A00ADF80C00ADF80E00AD
:10138000ADF8100001208DF8150002A800F082F9D8
:10139000012202210A4800F091FA14208DF804007D
:1013A00001208DF8050000208DF8060001208DF841
:1013B000070001A804F07EFC0BB000BD000C024049
:1013C000006400402DE9F04186B007460C46154602
:1013D0001E46DDF8308000208DF80D008DF80C00E1
:1013E00008208DF80E000197200A8DF80F008DF867
:1013F0001040290A8DF811108DF81250310A8DF81D
:1014000013108DF814604FEA18218DF815108DF81F
:10141000168001A9024800F05CFB06B0BDE8F0812F
:101420000064004000B585B00221094800F0B6F91B
:1014300058B10221064800F0D9F86A460021044854
:1014400000F0CFFA684600F0D7FB05B000BD000001
:101450000064004000B58BB00121022004F072FE50
:101460000121880604F08EFE0121880604F09AFE10
:1014700000214FF0806004F095FE4FF44050099039
:1014800002208DF8280000208DF82A0003208DF816
:10149000290001208DF82B0009A92E4801F0F6FD46
:1014A00009220C212B4801F039FE09220D2129487F
:1014B00001F034FE00208DF81E0001208DF81F0081
:1014C00000208DF820008DF821008DF822008DF885
:1014D00023008DF81A008DF81B0005208DF81C00E4
:1014E00001208DF81D000520ADF8180006A91A4846
:1014F00000F0EDF90E208DF8120000208DF8130099
:1015000001208DF814000020ADF80800ADF80A00A5
:10151000ADF80C00ADF80E00ADF8100001208DF80C
:10152000150002A800F0B6F8012202210A4800F0D6
:10153000C5F940208DF8040001208DF80500002039
:101540008DF8060001208DF8070001A804F0B2FB19
:101550000BB000BD00040240006800402DE9F041DE
:1015600086B007460C4615461E46DDF83080002042
:101570008DF80D008DF80C0008208DF80E000197F5
:10158000200A8DF80F008DF81040290A8DF81110EF
:101590008DF81250310A8DF813108DF814604FEA4F
:1015A00018218DF815108DF8168001A9024800F059
:1015B00090FA06B0BDE8F0810068004000B585B043
:1015C0000221094800F0EAF858B10221064800F06B
:1015D0000DF86A460021044800F003FA684600F05E
:1015E00025FC05B000BD000000680040B1F5007F9B
:1015F0003AD00FDC202928D006DC01291CD0042990
:101600001DD0082940D11DE0402921D0B1F5807FAF
:101610003AD126E0B1F5004F31D006DCB1F5806F4C
:1016200025D0B1F5006F2FD124E0B1F5803F12D065
:10163000B1F5003F28D111E0154A826025E008226B
:10164000C26022E01022C2601FE0082202611CE09A
:101650001022026119E00822426016E01022426066
:1016600013E00422426010E0042242600DE00422F4
:1016700042600AE0002282610422426005E000220A
:1016800082610422426000E000BF00BF704700009A
:101690000101010010B50021837A012202FA03F151
:1016A0003D4A126842F001023B4B1A603A4A1C3232
:1016B00012688A43384B1C331A60027BCAB9364A17
:1016C0000C3212688A43344B0C331A604288C38848
:1016D00042EA0343304A4032847A42F83430028886
:1016E000838842EA03432C4A4032847A02EBC402E4
:1016F0005360027B012A19D1274A0C3212680A432F
:10170000254B0C331A604288038842EA0343224A7D
:101710004032847A42F83430C288838842EA0343F4
:101720001D4A4032847A02EBC4025360C27A3AB94D
:10173000194A121D12688A43174B1B1D1A6006E0D6
:10174000154A121D12680A43134B1B1D1A600289A9
:1017500032B9114A143212688A430F4B14331A609B
:101760000289012A06D10C4A143212680A430A4B34
:1017700014331A60427B012A06D1074A1C321268D0
:101780000A43054B1C331A60034A126822F0010217
:10179000014B1A6010BD00000066004070B50446A1
:1017A0000D46002660692840002871D0B5F5807F7D
:1017B0005CD010DC082D35D006DC012D20D0022DA8
:1017C00024D0042D72D127E0102D31D0202D35D01A
:1017D000402D6BD138E0B5F5004F60D009DCB5F590
:1017E000007F49D0B5F5806F4CD0B5F5006F5DD165
:1017F0004FE0B5F5803F2DD0B5F5003F56D12FE035
:10180000A0682D4900F01AFC064651E0E06803216B
:1018100000F014FC06464BE0E068082100F00EFCE6
:10182000064645E0E068102100F008FC06463FE06F
:101830002069032100F002FC064639E020690821F6
:1018400000F0FCFB064633E02069102100F0F6FBB7
:1018500006462DE06068082100F0F0FB064627E010
:101860006068102100F0EAFB064621E0A069012132
:1018700000F0E4FB06461BE0A069022100F0DEFB5D
:10188000064615E0A069042100F0D8FB06460FE0EB
:101890000FE0A069702100F0D1FB064608E0606807
:1018A000042100F0CBFB064602E0FFE7002600BF64
:1018B00000E00026304670BD010101001AB1436905
:1018C0000B43436102E043698B434361704730B58A
:1018D000024600200023146824F0020414601468F7
:1018E00044F00104146000E05B1C546804F001043F
:1018F0001CB94FF6FF74A342F6D1546804F00104FA
:101900000CB900206CE08C79012C04D1146844F0EF
:101910008004146003E0146824F080041460CC791F
:10192000012C04D1146844F04004146003E01468EE
:1019300024F0400414600C7A012C04D1146844F0A3
:101940002004146003E0146824F0200414604C7A2E
:10195000012C04D1146844F01004146003E01468EE
:1019600024F0100414608C7A012C04D1146844F023
:101970000804146003E0146824F008041460CC7AAE
:10198000012C04D1146844F00404146003E01468CA
:1019900024F0040414608C78A407CD7844EA05642C
:1019A0000D7944EA05444D7944EA05540D886D1ECD
:1019B0002C43D461146824F001041460002300E077
:1019C0005B1C546804F001041CB14FF6FF74A34281
:1019D000F6D1546804F001040CB1002000E00120AD
:1019E00030BD10B500F5D87303EB01131B6803F08D
:1019F00004031372137A53B900F5D87303EB011380
:101A00001B6840F2FF7404EA5353136009E000F5C9
:101A1000D87303EB01131B686FF0604404EAD3032F
:101A2000536000F5D87303EB01131B6803F0020346
:101A3000537200F5D87303EB01135B6803F00F03D7
:101A4000937200F5D87303EB01135B681B0AD37420
:101A500000F5D87303EB01139B68D37200F5D873BC
:101A600003EB01139B681C0A147300F5D87303EB96
:101A700001139B681C0C547300F5D87303EB01131E
:101A80009B681B0E937300F5D87303EB0113DB689F
:101A9000D37300F5D87303EB0113DB681C0A1474CD
:101AA00000F5D87303EB0113DB681C0C547400F5CC
:101AB000D87303EB0113DB681B0E937421B9C36861
:101AC00043F02003C36003E0036943F02003036194
:101AD00010BD10B502460020936803F08063B3F197
:101AE000806F00D110E0936803F00063B3F1006FE2
:101AF00001D1012008E0936803F08053B3F1805FC7
:101B000001D1022000E00420042874D002F5C07343
:101B100003EB00131B6803F0010402F5C07303EB31
:101B200000131C600B7A7BB94B7A0C8843EA445350
:101B300002F5C07404EB00142468234302F5C0745A
:101B400004EB0014236010E00B7A4C6843EAC403F2
:101B50004C7A234302F5C07404EB00142468234339
:101B600002F5C07404EB001423608B7A03F00F03BA
:101B70008B7202F5C07303EB00135B6823F00F0454
:101B800002F5C07303EB00135C6002F5C07303EB56
:101B900000135B688C7A234302F5C07404EB0014D5
:101BA00063608B7B1C064B7B44EA03440B7B44EA5B
:101BB0000323CC7A234302F5C07404EB0014A36022
:101BC0008B7C1C064B7C44EA03440B7C44EA0323D5
:101BD000CC7B234302F5C07404EB0014E36002F5F0
:101BE000C07303EB00131B6843F0010402F5C073DC
:101BF00003EB00131C6010BD10B504462068A0F272
:101C000001200A281ED2DFE800F0051E3750698542
:101C1000A1BDD9F3207BE17A00EB012000B282491B
:101C20000880A17B607B01EB002000B27E494880E8
:101C3000217CE07B01EB002000B27B4988800846D4
:101C4000FFF780FAEDE0207BE17A00EB012000B2A3
:101C500075490882A17B607B01EB002001B27248CC
:101C60004182217CE07B01EB002001B26E48818241
:101C70001030FFF767FAD4E0207BE17A00EB012017
:101C800000B269490884A17B607B01EB002001B2AE
:101C900065484184217CE07B01EB002001B2624871
:101CA00081842030FFF74EFABBE0207BE17A00EB25
:101CB000012000B25C490886A17B607B01EB00201B
:101CC00001B259484186217CE07B01EB002001B242
:101CD000554881863030FFF735FAA2E0207BE17A63
:101CE00000EB012000B25049A1F84000A17B607BCD
:101CF00001EB002001B24C48A0F84210217CE07BAF
:101D000001EB002001B24848A0F844104030FFF732
:101D100019FA86E0207BE17A00EB012000B242490B
:101D2000A1F85000A17B607B01EB002001B23E488E
:101D3000A0F85210217CE07B01EB002001B23A4870
:101D4000A0F854105030FFF7FDF96AE0207BE17AEB
:101D500000EB012000B23449A1F86000A17B607B58
:101D600001EB002001B23048A0F86210217CE07B3A
:101D700001EB002001B22C48A0F864106030FFF79E
:101D8000E1F94EE0207BE17A00EB012000B2264928
:101D9000A1F87000A17B607B01EB002001B222481A
:101DA000A0F87210217CE07B01EB002001B21E48FC
:101DB000A0F874107030FFF7C5F932E0207BE17AAB
:101DC00000EB012000B21849A1F80001A17B607B63
:101DD00001EB002001B21448A0F80211217CE07B45
:101DE00001EB002001B21048A0F8041119E0FFE750
:101DF000207BE17A00EB012000B20B49A1F8100131
:101E0000A17B607B01EB002001B20748A0F8121112
:101E1000217CE07B01EB002001B20348A0F8141103
:101E200000BF00BF10BD0000E803002010B504464D
:101E30002068B0F5017F60D009DC302876D0A0F2B0
:101E4000012078B1012826D0022823D13CE0A0F25D
:101E5000052000286ED001286AD0022869D0032806
:101E6000F3D1B2E0207BE17A00EB012000B27149AE
:101E7000A1F88000A17B607B01EB002001B26D48DE
:101E8000A0F88210217CE07B01EB002001B26948C0
:101E9000A0F88410CBE0207BE17A00EB012000B2B7
:101EA0006449A1F89000A17B607B01EB002001B2A6
:101EB0006048A0F89210217CE07B01EB002001B289
:101EC0005C48A0F89410B2E0207BE17A00EB01209E
:101ED00000B25849A1F8A000A17B607B01EB002073
:101EE00001B25448A0F8A210217CE07B01EB002055
:101EF00001B25048A0F8A41099E0207BE17A00EBF1
:101F0000012000B24B49A1F8B000A17B607B01EB3E
:101F1000002001B24748A0F8B210217CE07B01EB21
:101F2000002001B24348A0F8B41080E066E001E070
:101F300019E031E0207BE17A00EB012000B23D495D
:101F4000A1F8C000A17B607B01EB002001B2394801
:101F5000A0F8C210217CE07B01EB002001B23548E3
:101F6000A0F8C41063E0207BE17A00EB012000B20E
:101F70003049A1F8D000A17B607B01EB002001B2C9
:101F80002C48A0F8D210217CE07B01EB002001B2AC
:101F90002848A0F8D4104AE0207BE17A00EB012029
:101FA00000B22449A1F8E000A17B607B01EB002096
:101FB00001B22048A0F8E210217CE07B01EB002078
:101FC00001B21C48A0F8E41031E0207BE17A00EB7C
:101FD000012000B21749A1F8F000A17B607B01EB62
:101FE000002001B21348A0F8F210217CE07B01EB45
:101FF000002001B20F48A0F8F41018E0207BE17A2D
:1020000000EB012000B20C494880A17B607B01EB12
:10201000002000B208490880217CE07B01EB002011
:10202000054988800CF036FA0349886000BF00BF7C
:1020300010BD0000E8030020280500200246002013
:1020400002EA01030BB1012000E00020704700000C
:102050002DE9F84F07460C4690464FF00009CA4656
:1020600000250026A346A01D00900425A7F15000DE
:1020700010283AD2DFE800F01608190F1E2326298F
:102080002C2F3239393939354FF0340903254FF0C7
:10209000400A01262BE04FF03D0903254FF02E0AA0
:1020A000012624E04FF0300921E04FF037094FF0CE
:1020B00003081CE04FF03A094FF0030817E04FF017
:1020C000410914E04FF0450911E04FF049090EE0D5
:1020D0004FF04D090BE04FF0510908E04FF0550962
:1020E00005E01448D0F8009001E0BDE8F88F00BF8B
:1020F000B8F1030F01D1032500265DB16A000E4936
:1021000001EB49005946FEF749F9294648460B4A72
:10211000126890475EB17200074901EB4A000099CE
:10212000FEF73CF931465046044A1268904700BF1A
:10213000DBE700004C0200207C1B0220380200205C
:1021400070B506460C4604F08000802808D104F0E3
:102150007F0000EB800106F58E7000EBC10507E003
:1021600004F07F0000EB800106F55D7000EBC10517
:1021700004F07F00287004F08000C00968702946D0
:10218000304607F06CFA002070BD70B506460C466C
:1021900004F08000802808D104F07F0000EB80016B
:1021A00006F58E7000EBC10505E004EB840106F531
:1021B0005D7000EBC1050020A87004F07F0028705E
:1021C000C4F3C01068702946304607F020FA00209A
:1021D00070BD2DE9F04106460D4690461F4605F0BC
:1021E0008000802808D105F07F0000EB800106F513
:1021F0008E7000EBC10407E005F07F0000EB80016A
:1022000006F55D7000EBC10405F07F00207005F05D
:102210008000C0096070C4F80880E770607808B179
:102220002078E080022F01D1002020712146304625
:1022300007F0A1F90020BDE8F0812DE9F041054645
:102240000E461746984606F07F0000EB800105F524
:102250005D7000EBC104E760C4F814800020A06149
:10226000607006F07F002070E878012800D12761B7
:10227000207820B92146284607F0A1F803E021463E
:10228000284607F06BFA0020BDE8F08108B500226F
:102290000092009A61F30A12009202691268009B90
:1022A0001A4303691A6008BD70B506460C4604F06F
:1022B0008000802808D104F07F0000EB800106F543
:1022C0008E7000EBC10505E004EB840106F55D703E
:1022D00000EBC1050120A87004F07F002870C4F352
:1022E000C01068702946304607F006FA002070BD1D
:1022F0002DE9F04107460D461646984605F07F0049
:1023000000EB800107F58E7000EBC10401206070C6
:1023100005F07F002070E66026610020A061C4F80F
:102320001480207820B92146384607F048F803E0A9
:102330002146384607F012FA0020BDE8F08100007F
:1023400030B587B00546594C284606F0FEFF01A877
:1023500003F058FF029CE868C0680590059820F4D7
:10236000705005900598E968C860284607F0BEFBE4
:1023700003280BD10020A8704FF40070A8800598A6
:1023800020F4705000F5105005907EE00120A870F8
:102390004020A8804648844209D34648844206D259
:1023A000059820F4705000F5605005906DE04148AC
:1023B000844209D34048844206D2059820F47050E4
:1023C00000F55050059060E03B48844209D33B48FB
:1023D000844206D2059820F4705000F540500590D4
:1023E00053E03648844209D33548844206D20598E2
:1023F00020F4705000F53050059046E0304884429B
:1024000009D33048844206D2059820F4705000F574
:102410002050059039E02B48844209D32A48844251
:1024200006D2059820F4705000F5105005902CE06D
:102430002548844209D32548844206D2059820F4D1
:10244000705000F5005005901FE02048844209D3E9
:102450001F48844206D2059820F4705000F5E050E1
:10246000059012E01A48844209D31A48844206D2E1
:10247000059820F4705000F5C050059005E00598CF
:1024800020F4705000F5A05005900598E968C860E8
:1024900000200690069820F4005000F500500690A9
:1024A0000698E9684861012007B030BD007A030A48
:1024B000C0E1E4000024F400E0EC040100C31801D2
:1024C000002D310140A44C0100366E0140E295011F
:1024D00080C3C90160600B02F8B5054600240020E6
:1024E0000090284607F043FB064681E006F0010015
:1024F00000287BD0E1B2284600F0F6FA0090009860
:1025000000F0010030B3012000FA04F72869406BA5
:10251000B8432969486300200090009820F001002A
:10252000401C009005F1180050F8240000998160CB
:10253000E1B232480068426828469047E8780128AE
:1025400008D13CB940F21110405D042802D1284660
:1025500006F0E0FF0098C0F3C00060B100200090DA
:10256000009820F008000830009005F1180050F89D
:102570002400009981600098C0F3001060B1002031
:102580000090009820F010001030009005F1180025
:1025900050F82400009981600098C0F3801060B169
:1025A00000200090009820F040004030009005F19D
:1025B000180050F82400009981600098C0F3400092
:1025C00060B100200090009820F00200801C009074
:1025D00005F1180050F82400009981600098C0F3BC
:1025E000C01018B12146284600F092FA641C760803
:1025F000002E7FF47BAF0120F8BD0000E002002038
:102600007CB50446002500200190204607F0B7FA6B
:1026100006466FE006F00100002869D0E9B22046C6
:1026200007F0B5FA0190019800F00100C8B300204E
:102630000190019820F00100401C019004F1540029
:1026400050F8250001998160E078012817D104F144
:10265000540050F825000069009005EB850104F551
:102660005D7000EBC10080680099C1F31201411A4E
:1026700005EB850204F55D7000EBC2008161E9B2F3
:102680001E480068026820469047E078012808D17B
:102690003DB940F21110005D052802D1204606F038
:1026A00039FF0198C0F3400060B10020019001980B
:1026B00020F00200801C019004F1540050F8250025
:1026C000019981600198C0F3C00088B10B4800688F
:1026D00081682046884700200190019820F008007A
:1026E0000830019004F1540050F8250001998160F0
:1026F0006D1C7608002E8DD101207CBDE0020020EB
:102700003EB50446A07A78B1D4F80C010068009078
:10271000009820F002000090009820F00100009046
:102720000099D4F80C01016000200190019820F07C
:102730000100401C0190206940680199884321698B
:102740004860094800688169204688470020029057
:10275000029820F0004000F1004002900298E168E9
:10276000486101203EBD0000E00200207CB5044627
:1027700000200190019820F0100010300190E068D6
:10278000806901998843E1688861E068006A009087
:10279000009800F00F0000EB800104F55D7000EB85
:1027A000C1050098C0F3434007282DD2DFE800F0B0
:1027B0002C04051D1E2C1F0027E00098C0F30A10F2
:1027C00090B10098C0F30A122046E96807F0E9F9D1
:1027D000E8680099C1F30A110844E860A869009903
:1027E000C1F30A110844A8610FE00EE00DE00822D1
:1027F00004F2CC51204607F0D4F9A8690099C1F33E
:102800000A110844A86100E000BF00BFE0688069C9
:1028100001990843E168886101207CBD38B5044610
:1028200008480068C168204688470020009000984A
:1028300020F00800083000900098E168486101200D
:1028400038BD0000E00200201FB5044600200090C3
:102850004FF48970005D009023480068416920466C
:10286000884720698068019000200390039820F435
:10287000006000F5006003900398E1684861A07A69
:1028800070B3019800F0010050B340F21510005DE4
:10289000012825D19DF80000032821D100200290B5
:1028A000029820F00100401C0290D4F80C0100684E
:1028B00002990843D4F80C110860029820F0020035
:1028C000801C0290D4F80C01006802990843D4F8E7
:1028D0000C1108600548006840F0060003490860D4
:1028E000012004B010BD0000E002002010ED00E067
:1028F00030B587B004460020029006900590049001
:1029000003900190029820F00100401C0290206981
:10291000406802998843216948600021204607F0F9
:10292000BBF800250BE0FF2104F1180050F825004A
:10293000816004F1540050F8250081606D1C6078BE
:10294000A842F0D84FF0FF312069816106986FF3FB
:102950000F00401C0690069880B200F5803006906B
:1029600006992069C161059820F00800083005909B
:10297000059820F00100401C0590059820F0020009
:10298000801C0590059920694161049820F00100A0
:10299000401C0490049820F008000830049004982B
:1029A00020F00200801C04900499206901612069D4
:1029B00000680390039820F4FE6003900399206957
:1029C0000160204606F0A6FD00200190019820F449
:1029D000805000F5805001900198E16848610448FA
:1029E0000068016920468847012007B030BD00001B
:1029F000E00200202DE9F04106460F4639463046F8
:102A000007F0E4F801214FF4897081550021801C02
:102A10008155002511E005EB850106F58E7000EB70
:102A2000C104012060702570E5800020E070402026
:102A3000A0600020E06060616D1C7078A842EAD858
:102A4000002510E005EB850106F55D7000EBC10483
:102A5000002060702570E580E0704020A0600020BC
:102A6000E06060616D1C7078A842EBD8304606F0DB
:102A70005BFC304606F085FA0021304607F00EF97F
:102A8000304606F011FB304606F0CEFFBDE8F0817F
:102A900038B504460020009007480068C169204608
:102AA0008847009820F4801000F58010009000986E
:102AB000E1684861012038BDE002002038B50446D5
:102AC0000020009007480068016A20468847009867
:102AD00020F4001000F5001000900098E1684861B3
:102AE000012038BDE002002030B5024615692B698F
:102AF00015696C6B24FA01F505F0010543EAC5136D
:102B000002F1180555F82150AD6805EA030030BD03
:102B10002DE9F84306460F4600250020009007EBFC
:102B2000870106F58E7000EBC104D4E90501451A52
:102B3000A068A84200D2A568E81C4FEA900906F1F7
:102B4000180050F827008069009029E0D4E90501B9
:102B5000451AA068A84200D2A568E81C4FEA90096F
:102B6000ABB2FAB23046E16807F0DBF8E06828441F
:102B7000E060A0692844A06106F1180050F8270021
:102B800080690090D4E90501884209D121780120AB
:102B900000FA01F83069406B20EA080031694863A7
:102BA000009880B2484506D9D4E90510884202D27F
:102BB00060690028CAD10120BDE8F8834748B0F910
:102BC0000000474908604548B0F9020048604348A2
:102BD000B0F9040088604148B0F90600C8603F4879
:102BE000B0F9080008613D48B0F90C0048613B4865
:102BF000B0F90E0088613948B0F91000C861374853
:102C0000807C08623548C07C48623448808A88628B
:102C100034480068002853D10846006800284FD186
:102C20003048406800284BD108464068002847D10A
:102C30002C488068002843D10846806800283FD18E
:102C40002848C06800283BD10846C068002837D112
:102C50002448006998BB0846006980BB2148406948
:102C600068BB0846406950BB1E48806938BB0846AF
:102C7000806920BB1B48C06908BB0846C069F0B921
:102C80001848006AD8B90846006AC0B91548406AB1
:102C9000A8B90846406A90B91248806A78B90846CF
:102CA000806A60B9002006E00D4951F820100D4AF5
:102CB00042F82010401C0C28F6DB00207047FFE78C
:102CC000002006E0064951F82010064A42F820107C
:102CD000401C0C28F6DB0120F0E70000281302203E
:102CE000401302207013022010B54FF02051084805
:102CF00000F00AF958B14FF02051054800F00CF8E7
:102D00000021034800F022F8024800F0A5F910BDA8
:102D1000B86402402C1E02200246094B9A4201D29E
:102D2000084801E00648103801F000531BB1064B7B
:102D30000B40C36002E0044B0B408360704700000F
:102D400010640240006002407D0F7D0F21B10268D7
:102D500042F00102026003E0026822F00102026018
:102D600070470000016821F001010160002101604D
:102D700041608160C1600161212141614A4988420D
:102D800004D13D21484A103A91608CE046491831FF
:102D9000884205D14FF47461434A103A916082E051
:102DA00041493031884205D14FF474113E4A103AFE
:102DB000916078E03C494831884205D14FF0746118
:102DC000394A103A91606EE037496031884204D147
:102DD0003649354A103AD16065E033497831884246
:102DE00004D13349304A103AD1605CE02E49903129
:102DF000884204D12F492C4A103AD16053E02A4925
:102E0000A831884205D14FF03D51274A103AD16090
:102E100049E02949884204D13D21274A083A1160F6
:102E200041E025491831884205D14FF47461224AA6
:102E3000083A116037E020493031884205D14FF41B
:102E400074111D4A083A11602DE01B49483188422F
:102E500005D14FF07461184A083A116023E0164911
:102E60006031884204D11149134A121F11601AE0DF
:102E700011497831884204D10D490F4A121F11605F
:102E800011E00D499031884204D10A490A4A121FC3
:102E9000116008E00849A831884204D14FF03D5143
:102EA000054A121F11607047106002403D0000206B
:102EB000400F002000003D201064024021B1026854
:102EC00042F48022026003E0026822F48022026061
:102ED000704722B1036843F40023036003E00368F2
:102EE00023F400230360016170470146486880B203
:102EF0007047014600200A6802F400220AB101204E
:102F000000E000207047000030B503460A4600206C
:102F100000240B4DAB4201D20A4901E008491039A7
:102F200002F000550DB14C6800E00C68064D2C40D5
:102F300004EA02050DB1012000E0002030BD0000D0
:102F400010640240006002407D0F7D0F10B501F05B
:102F500080034BB122B1436943F08003436103E036
:102F6000436923F08003436180290BD02AB10368B1
:102F700001F01E042343036004E0036801F01E0413
:102F8000A343036010BD000010B500220268134B7C
:102F90001A40CC680B6823434C6923438C69234354
:102FA000CC6923430C6A23434C6A23438C6A234332
:102FB0004C6B23438C6B23431A430260426922F01B
:102FC0000702D1E90B3423431A4342610B69436082
:102FD0004B6883608B68C36010BD00003F801CF0AD
:102FE000416070472DE9F047044625462A790521BE
:102FF00020460AF0B5FDD0B1B5F8017007F109001F
:1030000086B2B01E00EB0408B8F800203146204616
:103010000AF08CFD40B104F10709B5F805203946E6
:10302000484602F059FB00BF3046BDE8F087C82093
:10303000FBE770B50546002406E02819FFF7D2FF2C
:103040000646A01984B200BFC82CF6DBC82128466A
:10305000FDF7BDF970BD000010B504460349D1F875
:10306000600300210BF00EF910BD00009C1C022033
:10307000704710B50446204608F028FB10BD00003C
:103080000149086070470000143C0140F0B50A4651
:1030900000210023002400BF3DE0012505FA01F3D3
:1030A000156805EA03049C4234D105684F000326E5
:1030B000BE40B543056015794E00B54006683543FE
:1030C00005601579012D02D01579022D16D185687C
:1030D0004F000326BE40B543856055794E00B5408C
:1030E000866835438560456801268E40B543456056
:1030F000456896798E40B6B235434560C5684F0045
:103100000326BE40B543C560D5794E00B540C668BC
:103110003543C560491C1029BFD3F0BDF0B500236D
:1031200000244D07ED0E02FA05F3CE1000F1200544
:1031300055F826504E07F70E0F26BE40B543CF1068
:1031400000F1200646F82750CE1000F1200555F872
:10315000265045EA0304CE1000F1200545F826402C
:10316000F0BD0246002013690B400BB1012000E0C6
:103170000020704741837047018370474FF6FF710D
:1031800001600021017141718171C17170470000BE
:1031900070B50146104D95F89022642592FBF5F527
:1031A000ABB2642592FBF5F605FB1625ACB2002008
:1031B00049B920461BB100F5B275A8B20AE000F586
:1031C0008075A8B206E003EBC30505EB031501EB20
:1031D0008505A8B270BD00009C1C0220024612B1F9
:1031E000012A4BD127E0A1F201200A2822D2DFE8F0
:1031F00000F005070A0D101316191C1E2148704710
:1032000020481030FBE71F482030F8E71D483030D9
:10321000F5E71C484030F2E71A485030EFE719480C
:103220006030ECE717487030E9E71748E7E71648E1
:103230001030E4E722E0A1F2012008281DD2DFE8E7
:1032400000F004070A0D101316190E488030D6E757
:103250000D487038D3E70C486038D0E70A4850383A
:10326000CDE709484038CAE707483038C7E706487D
:103270002038C4E704481038C1E700BF00BF002071
:10328000BDE70000E8030020E80400200048704784
:103290002813022010B52DED048B044601F0E6FF43
:1032A000002858D0B4F8CE010F2808DCB4F8CE01BD
:1032B00000EE100AB8EE400ABDEC048B10BDB4F865
:1032C000CE01122812DCB4F8CE01FDF724FA41EC4D
:1032D000190B9FED240B53EC102BFDF72AF941EC51
:1032E000180BFDF769FA00EE100AE5E7B4F8CE0115
:1032F000162812DCB4F8CE01FDF70DFA41EC190BDB
:103300009FED1A0B53EC102BFDF713F941EC180B42
:10331000FDF752FA00EE100ACEE7B4F8CE011E28EF
:1033200012DCB4F8CE01FDF7F6F941EC190B9FED74
:10333000110B53EC102BFDF7FCF841EC180BFDF7CB
:103340003BFA00EE100AB7E7B4F8AE0100EE100A3F
:10335000B8EE400AB0E7B4F8AE0100EE100AB8EEDD
:10336000400AA9E7666666666666EE3F3333333326
:103370003333EB3F000000000000E83F0048704797
:10338000F41E022070B50A480468001D0568001D7F
:103390000668344454B108220649204601F046FF2D
:1033A000042204491031284601F040FF70BD00009E
:1033B000107AFF1F2203002010B52DED028B04466A
:1033C00001F054FF002873D094ED760A10EE101A25
:1033D0000846FDF7ADF941EC180B9FED4B0B53EC94
:1033E000102BFDF7D1F903D80020BDEC028B10BDE6
:1033F00094ED760AB5EEC00AF1EE10FA2FDB94EDEB
:10340000760A10EE101A0846FDF792F941EC180BF7
:103410009FED3F0B53EC102BFDF79EF91FD2B4F834
:10342000D401322801DC0320DFE7B4F8D40164289A
:1034300001DC0720D9E7B4F8D401962801DC0A2082
:10344000D3E7B4F8D401B0F58C7F01DC1220CCE7CF
:10345000B4F8D401B0F5C87F53DC1A20C5E794ED69
:10346000760A10EE101A0846FDF762F941EC180BC7
:103470009FED270B53EC102BFDF786F92DD894ED1B
:10348000760AD4ED770AB7EE001A71EE600AB4EE50
:10349000E00AF1EE10FA20D8B4F8D401322801DCA9
:1034A0000120A2E7B4F8D401642802DC02209CE7E2
:1034B00027E0B4F8D401962801DC032095E7B4F89E
:1034C000D401B0F58C7F01DC04208EE7B4F8D40180
:1034D000B0F5C87F15DC052087E794ED760AD4EDBA
:1034E000770AB7EE001A71EE600AB4EEE00AF1EE68
:1034F00010FA06DDB4F8D4010A2190FBF1F0C0B255
:1035000073E794F8AC0170E7666666666666EE3F40
:10351000333333333333E33F10B52DED048B04469F
:103520002068B0F9000000EE100AB8EEC00ADFED26
:103530001E0A30EE600ADFED1C0A80EE201A9FEDB5
:103540001B0A21EE000A84ED030A606890ED000A70
:10355000DFED170A80EE201A9FED160A21EE000A11
:1035600084ED040A94ED051AF0EE410A94ED031A75
:10357000B0EE410AFDF77AFE84ED060A2168B1F942
:103580000200FDF7B7F841EC190B9FED0B0B53EC64
:10359000102BFDF740F841EC180BFDF70DF9A06278
:1035A000BDEC048B10BD000000008045DA0F4940DF
:1035B00000003443DB0F4940CDCCCCCCCC8C7740E1
:1035C00010B52DED028B04464FF4CB60005990ED01
:1035D000000AB1EE400A04F5CA6080ED0B0AD0ED96
:1035E000060AB0EE600AFCF763FED4F88406D0ED5C
:1035F000020A20EE208A04F5CA60D0ED060AB0EE79
:10360000600AFCF791FED4F88406D0ED010A00EEC2
:10361000608A04F5C46080ED0B8ABDEC028B10BD9E
:1036200010B52DED068B0446D4F88806B0F90C00D1
:1036300000EE100AB8EEC00AB048D0ED000A80EEE5
:1036400020AAD4F88816B1F90400FDF753F841EC2C
:10365000190B9FEDAB0B53EC102BFCF7DCFF41EC8F
:10366000180BFDF7A9F800EE100AF1EE400A9FEDE5
:10367000A61A80EE810ADFEDA50A10EE20AA04F555
:10368000806080EDA5AAD4F88806B0F90E0000EE9F
:10369000100AB8EEC00A9E48D0ED000A80EE20AABB
:1036A000D4F88816B1F90600FDF724F841EC190B9F
:1036B0009FED980B53EC102BFCF7ADFF41EC180B72
:1036C000FDF77AF800EE100AF1EE400A9FED8E1A2F
:1036D00080EE810ADFED8D0A00EE20AA04F58060FD
:1036E00080EDA6AA04F5C46090ED030A8B4880ED36
:1036F000000A8B480068E0B98A48008800F400702E
:10370000B8B9D4F88806808A00F4007088B183487C
:10371000D0ED000A9FED841A70EE810AB0EE600AC7
:10372000FDF74EFD814880ED000A01207C490860CC
:1037300011E07B48006801280DD17A48008800F428
:10374000007040B9D4F88806808A00F4007010B187
:103750000020734908607548D0ED000A6F4890ED6D
:10376000001A70EEC10AB0EE600AFDF729FDB0EE56
:10377000408AFDF7BEFCDFED6E0AB4EEE00AF1EE22
:1037800010FA02D2002066490860654800680128E6
:103790001CD16648D0ED000A604890ED001A70EE2A
:1037A000C10AB0EE600AFDF70BFDB5EEC00AF1EEFE
:1037B00010FA05DD9FED5F0A5F4880ED000A0DE01D
:1037C0009FED5E0A5C4880ED000A07E054480068FF
:1037D00020B99FED5B0A584880ED000A5048006808
:1037E00058490860D4F88806808A4E49086004F574
:1037F000806090EDA50A5048D0ED000A30EE200A16
:1038000004F5806080EDA50A90EDA90AD0EDA50A27
:1038100030EE200A80EDA90A90EDAA0AD0EDA60AA2
:1038200030EE200A80EDAA0AD0EDA90AB0EE600AB7
:10383000FDF7C6FC04F5806080EDA90ADFED420AC1
:103840009FED420A04F5D560FDF768FCDFED3E0A06
:103850009FED3E0A04F5D560FDF760FC04F580603D
:1038600090EDAA1AF0EE410A04F5CA6090ED061A2E
:10387000B0EE410A04F1F80000F084F904F580602C
:1038800080EDB00A90EDB01AF0EE410A04F5CA607E
:1038900090ED0B1AB0EE410A04F5727008F04EFB81
:1038A00004F2C46080ED010A04F5806090EDA91A6D
:1038B000F0EE410A04F5C46090ED041AB0EE410A3E
:1038C00004F5B87000F05EF904F5806080EDAF0A91
:1038D00090EDAF1AF0EE410A04F5C46090ED0A1ABB
:1038E000B0EE410A04F5547008F028FB04F580603E
:1038F00080EDB10ABDEC068B10BD0000C0010020B8
:103900000000000000C8B94000003443DA0F49400D
:10391000C40100200000000000C8C940C801002008
:10392000D8010020E0010020DB0F4940CC0100203D
:10393000CDCCCC3DA69BC43BE4010020A69BC4BBE0
:1039400000000000DC0100209A99193E52B81E3F89
:1039500010B504469FED7C3ADFED7C2A9FED7C2A72
:10396000F6EE001A03230A221146B3EE0E1ADFED1B
:10397000790AB3EE0E0A04F1F80008F023FC9FED7B
:10398000723ADFED752A9FED722AF6EE001A0323D4
:103990000A2211469FED711ADFED6E0AB2EE0E0A91
:1039A00004F1800008F00EFC9FED673ADFED6A2A13
:1039B0009FED672AF6EE001A0323002209219FEDEE
:1039C000681ADFED640AB0EE0C0A04F5B87008F06E
:1039D000F9FB012300220A21B2EE041ADFED5D0A91
:1039E000B2EE040A04F5F47008F0AAFB01230022E9
:1039F0000A219FED581ADFED570AB7EE000A04F5C9
:103A0000A66008F09DFB0123002241F288319FED62
:103A1000511ADFED500A9FED530A04F5B56008F026
:103A20008FFB01230A2211469FED4A1ADFED490A56
:103A30009FED4D0A04F5187008F082FB012341F256
:103A4000883246F2A8119FED431ADFED420A9FED3E
:103A5000470A04F5547008F073FB012341F28832E1
:103A600046F2A8119FED3B1ADFED3A0A9FED400A9E
:103A700004F5727008F064FB012341F2883246F2CB
:103A8000A8119FED341ADFED330A9FED3A0A04F5D1
:103A9000976008F055FB012341F2883246F2A811E5
:103AA0009FED2C1ADFED2B0A9FED330A04F5886099
:103AB00008F046FB40F205210120FFF78FFBC4F818
:103AC000200640F206210120FFF788FBC4F85006CB
:103AD00007F05CFEC4F8800607F054FEC4F88406C4
:103AE00007F054FE083040F22461085107F04EFE02
:103AF000001D40F25461085107F044FE08304FF4B5
:103B0000C561085107F03EFE001D4FF4CB6108511E
:103B1000FFF7BCFBC4F888069FED180A04F5C460E3
:103B200080ED050A9FED160A303080ED050A9FED05
:103B3000090A04F5806080EDB10A9FED060A04F2DF
:103B4000C46080ED010A10BD17B7D1383333733F1D
:103B5000CDCC4C3D000000008FC2753F0000FA4301
:103B60000000C8430000164500007A440080BB45B1
:103B700000409C4500409C4600A00C46C3F548C050
:103B80009A99993E10B52DED0A8B0446B0EE408A05
:103B9000F0EE608A84ED0D8AC4ED0C8A94ED0C0A77
:103BA000D4ED0D0A30EE600A84ED080AD4ED080A5F
:103BB000B0EE600AFDF704FB84ED080A94ED080AF4
:103BC000D4ED160AB4EEE00AF1EE10FA0FD294ED3D
:103BD000080AD4ED160AF1EE600AB4EEE00AF1EE3E
:103BE00010FA04DD9FEDEA0ABDEC0A8B10BDE06B14
:103BF000012866D194ED000AD4ED080A20EE200ACF
:103C000010EE101A0846FCF793FDC4E9040194ED88
:103C1000010AD4ED0B0A20EE200A84ED060A94ED89
:103C2000080AD4ED090A30EE600AD4ED020A20EE4B
:103C3000200A84ED070A94ED0B0AD4ED080A30EE51
:103C4000200A84ED0B0A9FEDD30A04F12C0002F048
:103C5000D5F9D4ED110AB0EE600A04F1180002F0B3
:103C6000CDF994ED070A10EE101A0846FCF760FD36
:103C700041EC1A0B94ED060A10EE101A0846FCF7F8
:103C800057FD41EC1C0B94ED041BB0EE410AF0EE25
:103C9000610A53EC102BFCF7A5FB41EC1B0B53EC1A
:103CA0001A2BFCF79FFB41EC190BFCF785FDA06379
:103CB000D4ED100AB0EE600A04F1380002F09EF96B
:103CC0005AE1E06B022873D194ED080AD4ED090A99
:103CD00030EE600AD4ED000A20EE200A10EE101A31
:103CE0000846FCF725FDC4E9040194ED010AD4ED72
:103CF000080A20EE200A84ED060A94ED080AD4EDA5
:103D0000090AB0EE001A01EE600AD4ED0A0A30EE9C
:103D1000200AD4ED020A20EE200A84ED070AD4ED31
:103D2000110AB0EE600A04F1180002F067F994ED90
:103D3000070A10EE101A0846FCF7FAFC41EC1A0BC1
:103D400094ED060A10EE101A0846FCF7F1FC41EC5F
:103D50001C0B94ED041BB0EE410AF0EE610A53EC2B
:103D6000102BFCF73FFB41EC1B0B53EC1A2BFCF721
:103D700039FB41EC190BFCF71FFDA06494ED140A0C
:103D8000D4ED120A30EE200A84ED130A94ED130AE2
:103D900084ED0E0AD4ED100AB0EE600A04F138008A
:103DA00002F02CF994ED130A84ED140AE4E0FFE725
:103DB000E06B032884D194ED000AD4ED080A20EECC
:103DC000200A10EE101A0846FCF7B2FCC4E9040100
:103DD000E06D012806D194ED080AB5EEC00AF1EEB7
:103DE00010FA53DCE06D401C30B994ED080AB5EED2
:103DF000C00AF1EE10FA49D3D4ED080AB0EE600A19
:103E000002F0B6F8D4ED190AB4EEE00AF1EE10FAB9
:103E100008D894ED0B0AD4ED080A30EE200A84EDA0
:103E20000B0A33E0D4ED080AB0EE600A02F0A0F805
:103E3000D4ED190A94ED181A70EE810AB4EEE00A76
:103E4000F1EE10FA04DB9FED520A84ED0B0A1DE03F
:103E5000D4ED080AB0EE600A02F08AF8D4ED180A30
:103E600094ED191A70EE810A30EEC00AD4ED180AEA
:103E700080EE201A84ED1A1A94ED0B0AD4ED1A0A7A
:103E800094ED081A00EE810A84ED0B0A94ED010A04
:103E9000D4ED0B0A20EE200A84ED060A94ED080A00
:103EA000D4ED090A30EE600AD4ED020A20EE200AB1
:103EB000D4ED1B0AB7EE001A71EE600A20EE200A5C
:103EC000D4ED1B0A94ED1C1A00EE810A84ED070A5A
:103ED00094ED070A10EE101A0846FCF729FC41EC95
:103EE0001A0B94ED060A10EE101A0846FCF720FC97
:103EF00041EC1C0B94ED041BB0EE410AF0EE610A9C
:103F000053EC102BFCF76EFA41EC1B0B53EC1A2B05
:103F1000FCF768FA41EC190BFCF74EFCA06394ED3A
:103F20000E0AD4ED100AB4EEE00AF1EE10FA06DD46
:103F300094ED100A84ED0E0A0120E06501E00020F6
:103F4000E06594ED0E0AD4ED100AF1EE600AB4EECD
:103F5000E00AF1EE10FA09D294ED100AB1EE400A2F
:103F600084ED0E0A4FF0FF30E06501E00020E065CF
:103F700094ED070A84ED1C0A94ED090A84ED0A0AFF
:103F800094ED080A84ED090A94ED0E0A2CE600006F
:103F90000000000000409C4639490978012912D0F0
:103FA000017801290FD100F5C46191ED060A00F5F1
:103FB000806181EDA90A00F5CA6191ED060A00F55C
:103FC000806181EDAA0A2E490978022915D001786D
:103FD000022912D12A49097879B100F5C46191ED1D
:103FE000060A00F5806181EDA90A00F5CA6191ED2C
:103FF000060A00F5806181EDAA0A017802290DD137
:1040000000211F4A117049B19FED1E0A00F5806121
:1040100081EDA90A9FED1B0A81EDAA0A18490978CA
:10402000062912D0017806290FD100F5C46191ED5F
:10403000040A00F5806181EDA90A00F5CA6191EDDD
:10404000060A00F5806181EDAA0A0D490978042964
:1040500012D0017804290FD100F5C46191ED040A52
:1040600000F5806181EDA90A00F5CA6191ED060AAB
:1040700000F5806181EDAA0A0178014A117070474C
:10408000200200200000000010B50446207860B92E
:104090009FED100A04F5806080EDB10A9FED0D0AD6
:1040A00004F2C46080ED010A13E02078022803D1F5
:1040B000204600F0F5F80CE02078012803D12046D6
:1040C00000F06AF805E02078062802D12046FFF7C4
:1040D000A7FA10BD0000000010B50446FEF76EFD03
:1040E000012803D100202949086001E0FEF766FDA0
:1040F0002648006840F2DC51884208DD207802281A
:1041000002D02078032811D1012020700EE0D4F8CD
:104110008806C07A032802D10220207006E0D4F875
:104120008806C07A012801D106202070D4F88806BC
:10413000C07A03280DD116480068022809D19FEDE6
:10414000150A04F5806080EDA90A9FED120A80ED42
:10415000AA0AD4F88806C07A022806D0D4F88806BD
:10416000C07A0B490968884202D0002007490860DC
:10417000D4F88806C07A022801D100202070D4F833
:104180008806C07A0249086010BD000018020020AD
:104190001C0200200000000010B504469FED3B0A01
:1041A00004F5806080EDA50A9FED380A80EDA60A2F
:1041B00090EDA90AD0EDA50A30EE200A80EDA90AFB
:1041C00090EDAA0AD0EDA60A30EE200A80EDAA0AE8
:1041D000DFED2F0A9FED2F0A04F5D560FCF79EFF57
:1041E000DFED2D0A9FED2D0A04F2A460FCF796FF87
:1041F00004F5806090EDAA1AF0EE410A04F5CA6059
:1042000090ED061AB0EE410A04F1F80000F0A4FBAC
:1042100004F5806080EDB00A90EDB01AF0EE410A2E
:1042200004F5CA6090ED0A1AB0EE410A04F5727006
:1042300007F084FE04F2C46080ED010A04F580609A
:1042400090EDA91AF0EE410A04F5C46090ED061A4B
:10425000B0EE410A04F1800000F07EFB04F58060BE
:1042600080EDAF0A90EDAF1AF0EE410A04F5C4609C
:1042700090ED0A1AB0EE410A04F5547007F05EFEA4
:1042800004F5806080EDB10A10BD00000000000060
:104290009A99193E52B81E3F3333F3BF3333F33F7D
:1042A00010B52DED068B0446D4F88806B0F90C0045
:1042B00000EE100AB8EEC00A6248D0ED000A80EEA7
:1042C00020AAD4F88816B1F90400FCF713FA41ECDF
:1042D000190B9FED5D0B53EC102BFCF79CF941EC97
:1042E000180BFCF769FA00EE100AF1EE400A9FED98
:1042F000581A80EE810ADFED570A10EE20AA04F565
:10430000806080EDA5AAD4F88806B0F90E0000EE12
:10431000100AB8EEC00A5048D0ED000A80EE20AA7C
:10432000D4F88816B1F90600FCF7E4F941EC190B52
:104330009FED4A0B53EC102BFCF76DF941EC180B79
:10434000FCF73AFA00EE100AF1EE400A9FED401A2F
:1043500080EE810ADFED3F0A00EE20AA04F58060BE
:1043600080EDA6AA90EDA90AD0EDA50A30EE200AAC
:1043700080EDA90A90EDAA0AD0EDA60A30EE200A37
:1043800080EDAA0ADFED370A9FED370A04F5D56004
:10439000FCF7C4FEDFED350A9FED350A04F2A46098
:1043A000FCF7BCFE04F5806090EDAA1AF0EE410A1D
:1043B00004F5CA6090ED061AB0EE410A04F1F80067
:1043C000FFF7E0FB04F5806080EDB00A90EDB01AD5
:1043D000F0EE410A04F5CA6090ED0B1AB0EE410A06
:1043E00004F5727007F0AAFD04F2C46080ED010AC2
:1043F00004F5806090EDA91AF0EE410A04F5C4605E
:1044000090ED061AB0EE410A04F1800000F068F861
:1044100004F5806080EDAF0A90EDAF1AF0EE410A2E
:1044200004F5C46090ED0A1AB0EE410A04F5547028
:1044300007F084FD04F5806080EDB10ABDEC068BC9
:1044400010BD0000C00100200000000000C8B940FD
:1044500000003443DA0F4940C4010020000000008E
:1044600000C8C9409A99193E52B81E3F3333F3BF72
:104470003333F33F08B5FA2009F0FCF81548FFF78D
:1044800067FA25E01448FFF747F813483030FFF784
:1044900043F81048FFF794F80E48FFF71DFE0D484B
:1044A000FFF77AFD0B48FFF7EFFD002000900B4867
:1044B00090EDB10ABDEEC00A10EE100A81B20023E1
:1044C0001A4640F2FF10FDF749F8012009F0D2F832
:1044D000D8E70000A0130220C0190220A017022074
:1044E00010B52DED0A8B0446B0EE408AF0EE608ADE
:1044F00084ED0D8AC4ED0C8A94ED0C0AD4ED0D0AFE
:1045000030EE600A84ED080AD4ED080AB0EE600AC5
:10451000FCF756FE84ED080A94ED080A10EE101A16
:104520000846FCF705F941EC190B9FEDFB0B53EC2A
:10453000102BFCF711F90FD394ED080A10EE101AA6
:104540000846FCF7F5F841EC190B9FEDF50B53EC21
:10455000102BFCF719F904D2B3EE000A84ED000A1F
:1045600003E0B1EE080A84ED000A94ED080AD4EDE8
:10457000160AB4EEE00AF1EE10FA0ED294ED080A33
:10458000D4ED160AF1EE600AB4EEE00AF1EE10FA8C
:1045900003DD9FEDE50A84ED080AE06B012866D192
:1045A00094ED000AD4ED080A20EE200A10EE101A4D
:1045B0000846FCF7BDF8C4E9040194ED010AD4ED06
:1045C0000B0A20EE200A84ED060A94ED080AD4EDC9
:1045D000090A30EE600AD4ED020A20EE200A84EDCA
:1045E000070A94ED0B0AD4ED080A30EE200A84ED98
:1045F0000B0A9FEDCE0A04F12C0001F0FFFCD4ED74
:10460000110AB0EE600A04F1180001F0F7FC94ED15
:10461000070A10EE101A0846FCF78AF841EC1A0B4C
:1046200094ED060A10EE101A0846FCF781F841ECEA
:104630001C0B94ED041BB0EE410AF0EE610A53EC42
:10464000102BFBF7CFFE41EC1B0B53EC1A2BFBF7A7
:10465000C9FE41EC190BFCF7AFF8A063D4ED100ACA
:10466000B0EE600A04F1380001F0C8FC66E1E06BCE
:10467000022873D194ED080AD4ED090A30EE600ADD
:10468000D4ED000A20EE200A10EE101A0846FCF7BE
:104690004FF8C4E9040194ED010AD4ED080A20EEB4
:1046A000200A84ED060A94ED080AD4ED090AB0EE5A
:1046B000001A01EE600AD4ED0A0A30EE200AD4EDA9
:1046C000020A20EE200A84ED070AD4ED110AB0EEAA
:1046D000600A04F1180001F091FC94ED070A10EE55
:1046E000101A0846FCF724F841EC1A0B94ED060A60
:1046F00010EE101A0846FCF71BF841EC1C0B94ED69
:10470000041BB0EE410AF0EE610A53EC102BFBF7EC
:1047100069FE41EC1B0B53EC1A2BFBF763FE41ECDB
:10472000190BFCF749F8A06494ED140AD4ED120AB1
:1047300030EE200A84ED130A94ED130A84ED0E0A7C
:10474000D4ED100AB0EE600A04F1380001F056FC16
:1047500094ED130A84ED140AF0E0FFE7E06B032800
:1047600084D194ED000AD4ED080A20EE200A10EE60
:10477000101A0846FBF7DCFFC4E90401E06D0128CC
:1047800006D194ED080AB5EEC00AF1EE10FA53DC3A
:10479000E06D401C30B994ED080AB5EEC00AF1EEA8
:1047A00010FA49D3D4ED080AB0EE600A01F0E0FB3C
:1047B000D4ED190AB4EEE00AF1EE10FA08D894ED3F
:1047C0000B0AD4ED080A30EE200A84ED0B0A33E020
:1047D000D4ED080AB0EE600A01F0CAFBD4ED190A64
:1047E00094ED181A70EE810AB4EEE00AF1EE10FAB8
:1047F00004DB9FED4D0A84ED0B0A1DE0D4ED080AA1
:10480000B0EE600A01F0B4FBD4ED180A94ED191A69
:1048100070EE810A30EEC00AD4ED180A80EE201A3C
:1048200084ED1A1A94ED0B0AD4ED1A0A94ED081AC5
:1048300000EE810A84ED0B0A94ED010AD4ED0B0A17
:1048400020EE200A84ED060A94ED080AD4ED090A48
:1048500030EE600AD4ED020A20EE200AD4ED1B0AE5
:10486000B7EE001A71EE600A20EE200AD4ED1B0AA2
:1048700094ED1C1A00EE810A84ED070A94ED070AF4
:1048800010EE101A0846FBF753FF41EC1A0B94ED9B
:10489000060A10EE101A0846FBF74AFF41EC1C0B03
:1048A00094ED041BB0EE410AF0EE610A53EC102BBC
:1048B000FBF798FD41EC1B0B53EC1A2BFBF792FD19
:1048C00041EC190BFBF778FFA06394ED0E0AD4EDD1
:1048D000100AB4EEE00AF1EE10FA06DD94ED100ACB
:1048E00084ED0E0A0120E06501E00020E06594ED12
:1048F0000E0AD4ED100AF1EE600AB4EEE00AF1EE11
:1049000010FA15D294ED100AB1EE400A84ED0E0AA9
:104910004FF0FF30E0650DE09A9999999999D9BFC8
:104920009A9999999999D93F0000000000409C46B6
:104930000020E06594ED070A84ED1C0A94ED090A55
:1049400084ED0A0A94ED080A84ED090A94ED0E0A32
:10495000BDEC0A8B10BD000010B52DED0A8B04468E
:10496000B0EE408AF0EE608A84ED0D8AC4ED0C8AC8
:1049700094ED0C0AD4ED0D0A30EE600A84ED080ABD
:10498000D4ED080AB0EE600AFCF71AFC84ED080AC0
:10499000E06B012866D194ED000AD4ED080A20EE00
:1049A000200A10EE101A0846FBF7C2FEC4E9040103
:1049B00094ED010AD4ED0B0A20EE200A84ED060ADC
:1049C00094ED080AD4ED090A30EE600AD4ED020A2B
:1049D00020EE200A84ED070A94ED0B0AD4ED080AB4
:1049E00030EE200A84ED0B0A9FED5F0A04F12C00E3
:1049F00001F004FBD4ED110AB0EE600A04F11800D6
:104A000001F0FCFA94ED070A10EE101A0846FBF7C5
:104A10008FFE41EC1A0B94ED060A10EE101A0846B0
:104A2000FBF786FE41EC1C0B94ED041BB0EE410A33
:104A3000F0EE610A53EC102BFBF7D4FC41EC1B0B9E
:104A400053EC1A2BFBF7CEFC41EC190BFBF7B4FE31
:104A5000A063D4ED100AB0EE600A04F1380001F052
:104A6000CDFA74E0E06B022871D194ED080AD4ED20
:104A7000090A30EE600AD4ED000A20EE200A10EE9A
:104A8000101A0846FBF754FEC4E9040194ED010A2C
:104A9000D4ED080A20EE200A84ED060A94ED080AF7
:104AA000D4ED090AB0EE001A01EE600AD4ED0A0A4C
:104AB00030EE200AD4ED020A20EE200A84ED070A27
:104AC000D4ED110AB0EE600A04F1180001F096FA74
:104AD00094ED070A10EE101A0846FBF729FE41EC88
:104AE0001A0B94ED060A10EE101A0846FBF720FE8A
:104AF00041EC1C0B94ED041BB0EE410AF0EE610A90
:104B000053EC102BFBF76EFC41EC1B0B53EC1A2BF8
:104B1000FBF768FC41EC190BFBF74EFEA06494ED2B
:104B2000140AD4ED120A30EE200A84ED130A94ED33
:104B3000130A84ED0E0AD4ED100AB0EE600A04F1F7
:104B4000380001F05BFA94ED130A84ED140A94ED39
:104B5000090A84ED0A0A94ED080A84ED090A94ED25
:104B60000E0ABDEC0A8B10BD00409C4670B506468F
:104B70003048007800285BD12F480068B0F5006FFE
:104B800002D100202C4908602B4800682B49096895
:104B9000884203D100202749087070BD264800686C
:104BA00026490968884206D923480068C0F5006094
:104BB0002349086006E0214800681F490968401A37
:104BC0001F4908601E480068402811D91A4800880B
:104BD00085B24024184800684030174908601848DA
:104BE000006840381649086001201249087018E032
:104BF0001148008885B21248008884B20E480068C7
:104C00000F49096808440C49086000200C490860F5
:104C1000402C03D102200749087002E00120054919
:104C2000087008484219234681213046FDF760FB91
:104C300000BFB2E7540300204C03002048030020CB
:104C400050030020AE21022000BFFEE7F0B505466C
:104C5000059C00207FE093ED050A00EB4006404FE5
:104C600007EB8606D6ED000A20EE200AD3ED060AF1
:104C700000EB400607EB860696ED011A00EE810A6E
:104C8000D3ED070A00EB400607EB860696ED021A05
:104C900000EE810A334E06EB8006D6ED000A30EEB8
:104CA000200A05EB800686ED000A93ED010A00EB71
:104CB00040062D4F07EB8606D6ED000A20EE200AAF
:104CC000D3ED020A00EB400607EB860696ED011ACB
:104CD00000EE810AD3ED030A00EB400607EB8606DF
:104CE00096ED021A00EE810A204E06EB8006D6ED04
:104CF000000A30EE200A01EB800686ED000A94EDF2
:104D0000010A00EB40061A4F07EB8606D6ED000AB3
:104D100020EE200AD4ED020A00EB400607EB8606DF
:104D200096ED011A00EE810AD4ED030A00EB40066D
:104D300007EB860696ED021A00EE810A0D4E06EB91
:104D40008006D6ED000A30EE200A02EB800686EDE2
:104D5000000A461CF0B20328FFF67DAFF0BD00004C
:104D600008010020E40F022038010020F00F02208B
:104D70005C0100200C1002202DED028B82B00A2075
:104D800008F078FC00BF06F077FF0028FBD100BFD9
:104D900006F052FE0028FBD109F076FB0190A7E156
:104DA000012101A808F094FC1722D2493A2006F00C
:104DB000D1FFD149CF4806F0E9FFD049CD480F30A7
:104DC00006F076FECD48CC4BCD4ACE490090CE4879
:104DD000FFF73CFF00252DE0CB4800EB850090ED70
:104DE000000A10EE101A0846FBF7A2FC41EC180B63
:104DF0009FEDC60B53EC102BFBF7C6FC19D2C24833
:104E000000EB850090ED000A10EE101A0846FBF743
:104E10008FFC41EC180B9FEDBF0B53EC102BFBF7F5
:104E20009BFC06D29FEDBD0AB74800EB850080EDE4
:104E3000000A6D1C032DCFDBAF48007800F00100A5
:104E4000002846D0B6480078F0BB012141F28830F6
:104E500002F03CF9DFEDB30A9FEDB30AB34A01213A
:104E6000B34801F09BF8A64AA649B248FBF726FFD3
:104E7000B14B1A1F111FAF4806F08CFCA14890EDF2
:104E8000000AAE4880ED000AAD4880ED000AAD484A
:104E900080ED000A9B4890ED010AA84880ED010AC8
:104EA000A74880ED010AA74880ED010A954890EDDA
:104EB000020AA24880ED020AA14880ED020AA14838
:104EC00080ED020A964800E004E00078401C944916
:104ED0000870BBE09A4890ED000A9A4880ED000AFD
:104EE000964890ED000A964880ED000A90ED000A81
:104EF0009548D0ED000A20EE200A9248D0ED000A35
:104F0000914890ED011A00EE810A7E48D0ED000A2A
:104F10008D4890ED021A00EE810A884880ED000A63
:104F2000874890ED010A874880ED010A834890ED9B
:104F3000010A834880ED010A90ED010A8248D0ED14
:104F4000000A20EE200A7F48D0ED010A7E4890ED4D
:104F5000011A00EE810A6B48D0ED010A7A4890ED03
:104F6000021A00EE810A754880ED010A744890ED3E
:104F7000020A744880ED020A704890ED020A7048F7
:104F800080ED020A90ED020A6F48D0ED000A20EE93
:104F9000200A6C48D0ED020A6B4890ED011A00EE31
:104FA000810A5848D0ED020A674890ED021A00EED7
:104FB000810A624880ED020A514B024652499FED38
:104FC000630A5C48FBF7F2FF5B4B1A1F111F59483D
:104FD00006F0E0FB5E480088B8B95E4890ED000A34
:104FE0005D4880ED000A5B4890ED010A5A4880ED6B
:104FF000010A584890ED020A574880ED020A5448C9
:105000000088401C5249088020E051480088B0F5D3
:10501000FA6F14DA42F210715F2006F013FB4F486A
:10502000007830B134480278494B37494A4806F095
:1050300051FC47480088401C4549088006E0444828
:105040000088B0F5FA6F01D106F0F0FA2A48D0EDE9
:10505000040AB0EE600A00F093F8002008F078F936
:105060003F490860002440E004F134003D4931F933
:10507000100000EE100AB8EEC00ADFED3B0A80EE29
:10508000201AB3EE000A21EE000A384800EB840033
:1050900080ED000A04F1370031F9100000EE100A2B
:1050A000B8EEC00ADFED300A80EE201A9FED300A1C
:1050B00021EE000A2F4800EB840080ED000A04F185
:1050C0003D0031F9100000EE100AB8EEC00ADFED25
:1050D000260A80EE201A9FED280A21EE000A2748B2
:1050E00000EB840080ED000A641C032CBCDB00BFD5
:1050F00056E60000AC0F0220C40F0220FC0F022075
:10510000301002202410022018100220FCA9F1D235
:105110004D6270BFFCA9F1D24D62703F00000000EB
:10512000810100200080894500A08C4564E90008C9
:10513000581002204810022044100220EC100220D7
:10514000E0100220D410022070E900086F12833AA8
:10515000820100202C010020E40F022080010020A9
:10516000040100207C1B022000000047B010022038
:105170000000FA44BC10022000003443C810022092
:1051800010B52DED028BB0EE408A21480078F8B1C1
:10519000DFED200AB0EE480A1F4800F0F1FD1E487E
:1051A00090ED080AB5EEC00AF1EE10FA03D29FEDB9
:1051B0001B0A80ED080A184890ED080ABCEEC00AE8
:1051C00010EE100A84B22146154802F01CFB1CE0C8
:1051D0009FED100AB4EEC08AF1EE10FA10DD11480E
:1051E0000078401C0F49087008460078C82807DD81
:1051F0000120074908709FED0C0A074880ED0A0A54
:1052000041F28731064802F0FEFABDEC028B10BD78
:105210008001002000002042581002200000000001
:10522000000400408401002000401C4530B50B46BE
:10523000002100BF16E00A24B4EB107F05D930240A
:1052400004EB107403F8114005E0412404EB1074E2
:105250000A3C03F81140000100254C00641C1D5558
:105260004C1CE1B29142E6DB30BD000010B509F004
:105270000BF90549D1F86C13401AB0F57A7F01D2C9
:10528000012010BD0020FCE79C1C02202DE9F04706
:105290000446884691461F4654B900BF102080F34B
:1052A0001188BFF34F8FBFF36F8F00BF00BFFEE7C2
:1052B00000235A1E1946606908F04EFD10B90020FF
:1052C000BDE8F087E5686068A84200D1002518E0D5
:1052D0004A4641462846B8470646012E05D16D6824
:1052E0006068A8420CD100250AE0701C30B9AD6896
:1052F00004F10800854203D1002501E006B902E06F
:1053000000BF002DE4D100BF00231A461946606992
:1053100008F050FE2846D3E710B5032200210120F3
:1053200008F0EEFC0D49C1F86003032200210120C2
:1053300008F0E6FC0949C1F8640300231A46D1F8D5
:105340006003194608F036FE044900231A46D1F8D6
:105350006403194608F02EFE10BD00009C1C0220BC
:105360002DE9F04105460E4617469846282007F0DD
:1053700095FC044614B90020BDE8F081204600F0F9
:105380006DF820B9204608F075F80020F4E7E07EBB
:1053900020F038001030E076208C65F38C002084FB
:1053A000B4F8210066F34F1004F11801A4F82100AD
:1053B000B4F8230067F30900A4F82300B4F81F0031
:1053C00068F30900A4F81F000A484178E07E00F065
:1053D0000700084A105C814204DDE07E20F00700EF
:1053E000401CE07600231A461946606908F0E2FD89
:1053F0002046C1E75802002000B589B02421684644
:10540000FAF7E5FF054B002269460548FFF73EFF26
:10541000684600F09DF809B000BD0000B9540008CE
:105420000C20022010B5012002498861084600F0D6
:10543000B7FB10BD0C20022010B504464FF0FF3220
:105440002146054800F0FAFB606908F0BFF82046E5
:1054500008F010F810BD00000C20022070B50446C2
:1054600014488069B0F5805F01D3002070BD03222D
:105470000021012008F044FC05460DB90020F5E7A5
:1054800028212046FAF7A3FF204607F082FF0948AB
:1054900081698069401C074A9061A06961F3170027
:1054A000A06165614FF0FF322146024800F08FFB9A
:1054B0000120DBE70C2002202DE9F04106460F46D3
:1054C000904635463C4600235A1E1946686908F046
:1054D00043FCE87E00F0070038B3E87EC0F3C2006A
:1054E000072807D194F8200020B92560012084F80E
:1054F000200020E0E87EC0F3C20007280ED094F818
:10550000210007280ADA14F8211F2078401C04F82B
:105510002109201D00EB810005600CE000231A46E4
:105520001946686908F046FD05E000231A46194649
:10553000686908F03FFD94F82000012806D194F82E
:105540002100072802D10020BDE8F0810120FBE7FF
:105550002DE9F041044694F8200000283CD02D208D
:1055600007F09CFB054675B3206800F118010F2277
:105570002846FAF713FF206800F128061E2231465C
:1055800005F10F00FAF70AFF2068C07E00F007005F
:10559000032803D12068FFF74FFF0CE02068C07E8E
:1055A00020F007012068C176216800231A46486967
:1055B000194608F0FFFC00234FF488722D2128467D
:1055C00000F00AF907E0FFE7216800231A4648695E
:1055D000194608F0EFFC00BF94F82100002878D0AD
:1055E0000026B04694F82100062803DD07264FF474
:1055F000827816E094F82100042803DD052640F2A5
:1056000003180EE094F82100012803DD02264FF470
:10561000817806E094F82100002802DD012640F29E
:105620000118C6EB061007F039FB074607B900263C
:10563000002540E0B54232DA221D02EB85021268F5
:1056400002F11801C5EB0512D0190F22FAF7A6FED8
:10565000201D00EB85000068C07E00F007000328D5
:1056600006D1211D01EB85010868FFF7E5FE20E06A
:10567000201D00EB85000068C07E20F00701201D82
:1056800000EB85000068C176211D01EB85010968EA
:1056900000231A464869194608F08CFC09E0211DD0
:1056A00001EB8501096800231A464869194608F08C
:1056B00081FC681CC5B294F82100A842BADC3EB156
:1056C0001FFA88F2C6EB06110023384600F084F872
:1056D00000BFBDE8F08100002DE9F04104460D4611
:1056E0001646002740F20221701A8E4249D019DC7A
:1056F00040F20111A6EB01008E4233D008DC012EEE
:1057000025D0022E25D0032E26D0042E57D126E0F8
:1057100001282AD003282BD004282CD0B0F5807F74
:105720004DD12BE005283BD008DC01282CD00228E5
:105730002DD003282ED0042841D12EE0062832D0C7
:10574000072833D0082834D0FF2838D134E0214F3F
:1057500036E0204F0B3733E01E4F0C3730E01D4F43
:1057600086372DE01B4F2C372AE01A4F303727E0C1
:10577000184F343724E0174F363721E0154F3737AD
:105780001EE0144F52371BE0124F623718E0114FE2
:10579000723715E00F4F733712E00E4F74370FE07A
:1057A0000C4F75370CE00B4F7C3709E0094F8237FF
:1057B00006E0084F863703E0064F8C3700E000BF55
:1057C00000BF27B12A4621463846FAF7E7FDBDE873
:1057D000F0810000F51E02202DE9FE4F80460D46A7
:1057E00091469A465046FDF7D3FC02902249002389
:1057F0005A1ED1F86003194608F0AEFA1F4EA6F8FB
:1058000000901D4890F8900270800298B080B01D02
:1058100001902A4641460198FAF7C0FDA81D1FFADB
:1058200080FBF41F40F20130A4F80500A520207091
:10583000114890F85C03E0700F4890F85C03401C3E
:105840000D4981F85C03A4F801B0221D0521204612
:1058500005F0D8FE0BF1090087B2B81E21460844B6
:10586000009039462046009A05F0B6FE384600F012
:105870000FF8BDE8FE8F00009C1C0220331E0220A2
:1058800004E0FFF7B9FD642007F0F4FEF9E700003B
:1058900010B50446A1B20448FDF7A2FB012102485D
:1058A000FDF754FA10BD0000B864024000B597B08F
:1058B00001214FF0401000F045FC0121202000F0B4
:1058C00081FC082209217048FDF728FC08220E21DE
:1058D0006D48FDF723FC11A8FDF750FC4FF4844000
:1058E000119002208DF8480000208DF84A00022017
:1058F0008DF8490001208DF84B0011A96248FDF791
:10590000C5FB624802F0EAFA4FF4E1301390002040
:10591000ADF85000ADF85200ADF854000C20ADF8D1
:1059200056000020ADF8580013A9584802F0AAFB11
:105930001021564802F0A4FA012240F224415348B3
:1059400002F07BFB01224021504802F0BDFA012207
:1059500080214E4802F0B8FA01214C4802F0A8FA22
:1059600000214B48FDF7F2F94948FDF7FBF94FF0EC
:10597000206001904548001D029046480390002099
:105980000490C8200590002006904FF48060079096
:105990000020089009904FF480700A904FF4403036
:1059A0000B9000200C900D900E900F9001A938489C
:1059B000FDF7EAFA00223749C8313548FDF789FA80
:1059C00001213348FDF77AFA012210213048FDF712
:1059D000BDFA00212E48FDF7B9F901212C48FDF749
:1059E000B5F900212A489030FDF7B0F928489030E9
:1059F000FDF7B8F94FF0206001902448001D029097
:105A00002548039040200490C8200590002006906F
:105A10004FF4806007900020089009900A904FF49E
:105A200000300B9000200C9001A919489030FDF730
:105A3000ABFA0122102116489030FDF787FA0021B9
:105A400013489030FDF782F946208DF8400005207C
:105A50008DF8410000208DF8420001208DF84300B0
:105A600010A800F027F947208DF8400005208DF898
:105A7000410000208DF8420001208DF8430010A85D
:105A800000F018F917B000BD0018024000140140E2
:105A9000286402409C1C02202C1E02201CB50121FF
:105AA000402000F04FFB4FF40050009001208DF893
:105AB000040000208DF8060003208DF80500012069
:105AC0008DF8070069460348FDF7E0FA00F004F896
:105AD0001CBD00000018024010B54FF400510248F0
