:020000040800F2
:10000000203302207D020008196E00086D5D000893
:10001000156E0008C912000891B000080000000029
:10002000000000000000000000000000C501000802
:10003000C14100080000000019020008CD8000083E
:10004000A1020008A1020008A1020008A102000804
:10005000A1020008A1020008A1020008A1020008F4
:10006000A1020008A1020008A1020008A1020008E4
:10007000A1020008A1020008A1020008A1020008D4
:10008000A1020008A1020008A1020008A1020008C4
:1000900031140008A1020008A1020008A102000812
:1000A000A1020008A1020008A1020008A1020008A4
:1000B000A1020008A1020008A1020008A102000894
:1000C000A1020008A1020008A1020008A102000884
:1000D000A1020008998D0008A10200087D8E000889
:1000E000A1020008A1020008B96E0008A1020008E0
:1000F000A1020008A1020008A1020008A102000854
:10010000A1020008A1020008A1020008A102000843
:10011000A1020008A1020008A1020008A102000833
:10012000A1020008A1020008A1020008A102000823
:10013000A1020008A1020008A1020008A102000813
:10014000C9150008A1020008A1020008A96E000854
:10015000A1020008A1020008393E00089D90000895
:10016000A1020008A1020008A1020008A1020008E3
:10017000A1020008A1020008A1020008000000007E
:10018000A1020008A1020008A1020008158D0008C4
:10019000A1020008A1020008A1020008A1020008B3
:1001A0000000000000000000A1020008DFF810D0ED
:1001B00000F038FC004800477DCE0008AFF3008017
:1001C000203302202A4B19680868B0E8F04F80F30A
:1001D0000988BFF36F8F4FF0000080F311887047DC
:1001E0000000000006480068006880F3088862B6D6
:1001F00061B6BFF34F8FBFF36F8F00DF00BF00BF4B
:1002000008ED00E0DFF80C00016841F470010160C6
:10021000704700BF88ED00E0EFF30980BFF36F8FF8
:10022000134B1A681EF0100F08BF20ED108A20E94A
:10023000F04F106008B44FF0100080F31188BFF346
:100240004F8FBFF36F8F0EF07BFF4FF0000080F3F6
:10025000118808BC19680868B0E8F04F1EF0100F4C
:1002600008BFB0EC108A80F30988BFF36F8F704726
:1002700040000020EFF30580704700000948016846
:1002800041F4700101600848804708480047FEE7D4
:10029000FEE7FEE7FEE7FEE7FEE7FEE7FEE7FEE736
:1002A000FEE7000088ED00E0E1800008AD010008F5
:1002B0009FED1A1AF5EE000A40EE010ABDEEE00AC3
:1002C000F5EEC00A10EE100AF1EE10FA38BF401E2B
:1002D00000EE100A1349F7EE001AB8EEC00A30EE2D
:1002E000C00ADFED0F0A20EE200AFCEEC00A10EE75
:1002F000900AC0F3080000EE900A01EB8000F8EECF
:10030000600A90ED011A70EE600A90ED000A71EE3D
:10031000E01A21EE800A00EE810A704783F9223E3E
:10032000000000442C050108DFED190AB5EEC00AF3
:1003300060EE200ABDEEE01A11EE100AF1EE10FA9E
:1003400038BF401E00EE100A1349F7EE001AB8EE4F
:10035000C00A30EEC00ADFED0F0A60EE200ABCEEE4
:10036000E00A10EE100AC0F3080000EE100A01EBDC
:100370008000B8EE400A90ED011A70EEC00A90EDD0
:10038000000A71EEE01A21EE800A00EE810A704741
:1003900083F9223E000000442C05010840EA0103D5
:1003A0009B0703D009E008C9121F08C0042AFAD22B
:1003B00003E011F8013B00F8013B521EF9D27047EF
:1003C000D2B201E000F8012B491EFBD27047002297
:1003D000F6E710B513460A4604461946FFF7F0FF44
:1003E000204610BD421C10F8011B0029FBD1801AC9
:1003F00070472DE9FE4F804681EA0300C00F0C468E
:10040000009021F0004123F00045B8EB0200A94123
:1004100005D24046214690461C460B46024623F034
:100420000040104347D0270DC7F30A00C3F30A5119
:100430000290401A019040286BDAC3F3130040F495
:10044000801B0098924620B10023D2EB030A63EB95
:100450000B0B01985946C0F14002504600F015FAC6
:1004600006460D4650465946019A00F01DFA10EB1B
:1004700008006141002487EA115284EAE7731A43B5
:1004800040D0009A62B3019A012A4FEA075215DC64
:10049000001B61EB02014FF0004202EA0752CDE976
:1004A0000042001C41F5801132462B4600F054FA00
:1004B00003B0BDE8F08F40462146F9E7001B61EB31
:1004C0000201001C41F5801300185B412018A2F5C1
:1004D000001747EB030140EAD570B6196D4111E0F2
:1004E0006D084FEA360645EAC0754FEA0752001B11
:1004F00061EB0201001C41F5801149084FEA300010
:100500000019514132462B4603B0BDE8F04F00F0D0
:1005100014BA0098012240000023D0EB020263EBE2
:10052000E073009821464FEAE074B8EB000061EBFD
:100530000401E9E783F000435BE781F0004158E7FD
:100540002DE9FE4F81EA030404F0004421F000414C
:1005500000944FF0000B23F0004350EA01045ED0FA
:1005600052EA03045BD0C3F30A54C1F30A552C4486
:10057000A4F2F3340194A0FB0254C1F3130141F43B
:100580008011C3F3130343F4801301FB024400FB07
:10059000034E840A970A44EA815447EA8357A4FB2E
:1005A000076802958D0A05FB07854FEA932C04FB2B
:1005B0000C542705029D4FEA065847EA1637B5EB5B
:1005C00008056EEB070C870E920E47EA811742EA88
:1005D0008312A7FB0201B6EB0B0164EB00042B0DA9
:1005E00043EA0C335E1844EB1C50DA465146E7FBF5
:1005F0000201C5F313044FEA0B3343EA14534FEAE5
:100600000432019C43EA0603A4F10C040294009C0A
:10061000CDE900B400F0A0F903B0BDE8F08F0020F0
:100620000146F9E72DE9F04D81EA030404F0004B9F
:1006300021F0004514464FF0000A23F0004150EA33
:10064000050220D054EA01021DD0C5F30A57024624
:10065000C5F31303C1F31300C1F30A5640F4801528
:1006600043F48013A7EB0608101BD64608F2FD38AA
:1006700073EB050002D308F1010801E092185B4119
:10068000B8F1000F03DA00200146BDE8F08D00202C
:100690004FF48011064684460EE0171B73EB0507E6
:1006A00005D3121B63EB050306434CEA010C490812
:1006B0004FEA300092185B4150EA0107EDD152EA4F
:1006C000030012D082EA040083EA0501084305D042
:1006D000101BAB4106D20122002306E000224FF09E
:1006E000004302E06FF0010253101AEB06004CEBDE
:1006F000085110EB0A0041EB0B01BDE8F04D00F092
:100700001CB90EB5C10F80EAE0700844CA07002189
:1007100040F233438DE80E000A460B4600F01CF908
:1007200003B000BD0EB540F2334102910021CDE986
:1007300000110A460B4600F00FF903B000BD00F0AF
:10074000004230F000400AD0C10D01F56071C0F3E5
:10075000160042EA0151C2084007114370470020C9
:100760000146704730B5041E71F1000404DB4FF000
:100770000044404264EB0101141E73F1000405DBE8
:100780001C464FF00043524263EB04038B4208BF08
:10079000824230BD30B5041E71F1000404DB4FF01D
:1007A0000044404264EB0101141E73F1000405DBB8
:1007B0001C464FF00043524263EB0403994208BFCA
:1007C000904230BD01F0004330B421F0004150EAC6
:1007D000010206D00A0DA2F56072C1F31301002ACE
:1007E00002DC30BC00207047440F44EAC104C10061
:1007F000E01830BC00EBC25000F068B830B50B46D2
:10080000014600202022012409E021FA02F59D4240
:1008100005D303FA02F5491B04FA02F52844151E14
:10082000A2F10102F1DC30BD2DE9F05F05460020A8
:1008300092469B4688460646814640241BE0284651
:1008400041464746224600F0FFF853465A46C01A32
:10085000914110D311461846224600F016F82D1A81
:1008600067EB01084F4622460120002100F00DF8F9
:1008700017EB00094E41201EA4F10104DFDC4846BD
:1008800031462A464346BDE8F09F202A04DB203A41
:1008900000FA02F1002070479140C2F1200320FAD3
:1008A00003F3194390407047202A06DBCB17203A08
:1008B00041FA02F043EAE07306E041FA02F3D04065
:1008C000C2F1200291400843194670470029A8BF91
:1008D0007047401C490008BF20F00100704710B469
:1008E000B0FA80FC00FA0CF050EA010404BF10BC1E
:1008F000704749B1CCF1200421FA04F411FA0CF14B
:1009000018BF012121430843A3EB0C01CB1D4FEA83
:1009100000614FEA102042BF002010BC704700EB7E
:10092000C35010440029A4BF10BC7047401C4900AC
:1009300008BF20F0010010BC704710B5141E73F101
:10094000000408DA401C41F1000192185B411A438F
:1009500001D120F0010010BD2DE9F04D92469B46DB
:1009600011B1B1FA81F202E0B0FA80F22032904681
:10097000FFF78BFF04460F4640EA0A0041EA0B01ED
:1009800053465A46084313D0114653EA010019D082
:10099000C8F14002504600F057F805460E46504652
:1009A00059464246FFF771FF084305D0012004E095
:1009B00020463946BDE8F08D0020054346EAE07642
:1009C0002C4337430A986305E40AA0EB0800002291
:1009D000FD0A44EA47540A3002D500200146E9E7FF
:1009E000010510196941DDE9084500196941BDE8B3
:1009F000F04DA2E7C1F30A52C1F3130140F2FF33F5
:100A000041F480119A4202DA00200146704740F218
:100A100033439A42A2F2334202DC524200F014B84D
:100A2000FFF733BF064C074D06E0E06840F00103D6
:100A300094E8070098471034AC42F6D3FFF7BAFBAE
:100A4000D00D0108F00D0108202A04DB203A21FA1C
:100A500002F00021704721FA02F3D040C2F12002D7
:100A6000914008431946704770B58C1810F8015B27
:100A700015F0070301D110F8013B2A1106D110F837
:100A8000012B03E010F8016B01F8016B5B1EF9D13B
:100A90002B0705D40023521E0DD401F8013BFAE7C1
:100AA00010F8013BCB1A921C03E013F8015B01F82C
:100AB000015B521EF9D5A142D8D3002070BD21B1EF
:100AC000826842F00102826003E0826822F0010243
:100AD000826070470021084A1168084A1140D0E935
:100AE00000231A4383681A43C3681A431143044A14
:100AF000C2F804137047000004230140E030FCFFFB
:100B00000020014030B50246002000235068104C00
:100B100020400D790C6844EA052420435060906819
:100B20000C4C2040D1E903542C438D682C434D7963
:100B300044EA450420439060D06A20F470000C7DA4
:100B4000641EE4B2234340EA0350D06230BD00008B
:100B5000FFFEFFFCFDF7FFC0F0B504460D46002088
:100B60000021092D11DDE068A5F10A0606EB460714
:100B7000072606FA07F18843A5F10A0606EB4606A2
:100B800003FA06F10843E0600CE0206905EB450735
:100B9000072606FA07F1884305EB450603FA06F136
:100BA00008432061072A0FDA606B561E06EB8607A2
:100BB0001F2606FA07F18843561E06EB860605FA3D
:100BC00006F10843606322E00D2A0FDA206BD61F7E
:100BD00006EB86071F2606FA07F18843D61F06EBA9
:100BE000860605FA06F10843206310E0E06AA2F1E8
:100BF0000D0606EB86071F2606FA07F18843A2F1C9
:100C00000D0606EB860605FA06F10843E062F0BD24
:100C1000816841F0804181607047000038B1084927
:100C2000096841F40001074AC2F8041306E00449C8
:100C3000096821F40001034AC2F804137047000058
:100C4000042301400020014010B52DED028BB0EED1
:100C5000408AB0EE480A0AF063FDBDEC028B10BD7D
:100C600010B52DED028BB0EE408AF0EE608AF0EE0A
:100C7000680AB0EE480A0AF0E9FDBDEC028B10BD2F
:100C800010B52DED028BB0EE408AB0EE480AFFF7AA
:100C90000FFBBDEC028B10BDF0EE400AF5EEC00A72
:100CA000F1EE10FA02DDB0EE600A7047B1EE600AB4
:100CB000FBE7000018B19FED020A80ED000A7047C3
:100CC000000000007047000070B52DED0C8B84B063
:100CD00006460C4615469FED990AF0EE408A9FEDB8
:100CE000970AB0EE409A9FED950AF0EE40BA9FED5C
:100CF000930AF0EE409A9FED910AB0EE40AA0EB131
:100D000004B11DB904B0BDEC0C8B70BD8C48FFF76D
:100D1000D1FF8C48FFF7D6FF8A48D0ED000A9FED3F
:100D20008A1A60EE810AB0EE600A00F039F9F0EE3E
:100D3000408A28EEA80AF0EE408A8248D0ED000AE8
:100D4000B0EE001A60EE810A9FED7F1A60EE810A14
:100D5000B0EE600A00F024F9B0EE409A29EE090ADC
:100D6000B0EE409ADFED790AB7EE000A00EEA80A6D
:100D7000DFED770A00EEC90ADFED760A20EE200AE1
:100D8000754880ED000A6E4890ED000ADFED730AA9
:100D900080EE201AB7EE000A31EE000A20EE000ABB
:100DA0006D48D0ED000A80EE801A6D4880ED001A83
:100DB00094ED000AB5EEC00AF1EE10FA0DD194EDF3
:100DC000010AB5EEC00AF1EE10FA06D194ED020A5E
:100DD000B5EEC00AF1EE10FA46D09FED580AB0EE1B
:100DE000408A0020019002900390D4ED000A60EE4A
:100DF000A00A94ED011AD4ED011A41EE210A94EDF6
:100E0000021AD4ED021A41EE210AB0EE600A00F097
:100E1000A9F8B0EE408A94ED000A20EE080A8DEDA4
:100E2000010A94ED010A20EE080A8DED020A94ED04
:100E3000020A20EE080A8DED030ADDED010AF1EE4B
:100E4000600AB0EE600AFFF7FFFEF0EE409A9DEDFB
:100E5000031AF0EE410A9DED021AB0EE410AFFF7C7
:100E6000FFFEB0EE40AA07E09FED340AF0EE409A94
:100E70009FED320AB0EE40AA95ED000AB5EEC00A29
:100E8000F1EE10FA0DD195ED010AB5EEC00AF1EEC2
:100E900010FA06D195ED020AB5EEC00AF1EE10FA8D
:100EA0003CD0B0EE690A00F07BF8B0EE408AB0EEBC
:100EB000690AFFF7E5FEB0EE40DAB0EE4A0A00F04C
:100EC0006FF8F0EE40AAB0EE4A0AFFF7D9FEB0EE96
:100ED00040BA28EE2A0AD5ED010A20EE200AD5ED07
:100EE000000A0DEE200A68EE0B0A95ED021A00EEDC
:100EF000810AB0EE40CA95ED010A20EE0B0AD5ED4D
:100F0000020A0AEEE00AF0EE40CAF0EE6C0AB0EE19
:100F10004C0AFFF7A5FEF0EE40BA03E09FED070A8A
:100F2000F0EE40BAB0EE4A1AF0EE690AB0EE6B0A83
:100F300030460BF015FC00BFE4E6000000000000A6
:100F40001C0400202004002035FA8E3CC1BFAD3BBC
:100F50009DF8C5362F7C1C4124040020506CC24AE9
:100F600028040020F0EE400AF6EE001A60EEA11A06
:100F7000B0EE611AB0EE600A10EE100A0749A1EB5C
:100F8000600000EE100A21EE002AF7EE081A42EE89
:100F9000401A61EE801AB0EE610A7047DF59375F80
:100FA00010B52DED028BB0EE408AB0EE480AFFF787
:100FB000BBF9BDEC028B10BD2DE9F0412DED028B8C
:100FC0009AB00546B0EE408A0E4617469846002075
:100FD0001790189019901490159016904DB146B135
:100FE0003FB1B8F1000F04D0B5EEC08AF1EE10FAAF
:100FF00005D100201AB0BDEC028BBDE8F08196ED62
:10100000000A8DED170A96ED010A8DED180A96ED8E
:10101000020A8DED190A97ED000A8DED140A97ED7D
:10102000010A8DED150A97ED020A8DED160A17AA31
:1010300014A928460BF0E6F9402104A8FFF7C7F9E8
:1010400000200090019002900390002417A904A8AA
:101050000DF01EFB00BF30E004A800EB041090ED83
:10106000000AD5ED000A20EE200A04A800EB0410C7
:10107000D0ED010A95ED011A00EE810A04A800EBFB
:101080000410D0ED020A95ED021A00EE810A04A8C0
:1010900000EB0410D0ED030A95ED031A00EE810A6F
:1010A00020EE080AF0EE000A80EE201A684600EBF7
:1010B000840080ED001A601CC4B2042CCCDB002438
:1010C00010E005EB840090ED000A684600EB840018
:1010D000D0ED000A30EE200A05EB840080ED000A16
:1010E000601CC4B2042CECDB28460DF02DF8012066
:1010F00080E710B507F042FD06F08AF810BDF0EE6B
:10110000400AF5EEC00AF1EE10FA02DBB0EE600A1A
:101110007047F5EEC00AF1EE10FA02D2B1EE600AA5
:10112000F6E7B0EE600AF3E790ED001AB4EEC01AED
:10113000F1EE10FA02DD80ED000A08E090ED001AF1
:10114000B4EEE01AF1EE10FA01D2C0ED000A7047D9
:1011500030B5B0F90040B0F90850AC420CDAB0F943
:10116000004004F50054B0F90850611BB0F900408C
:10117000B0F90850621B14E0B0F90040B0F9085013
:10118000AC4202D1002100220BE0B0F90040A4F5EE
:101190000054B0F90850611BB0F90040B0F9085094
:1011A000621B002901DD0C4600E04C42002A01DDF3
:1011B000154600E05542AC4201DC0B4600E0134608
:1011C000C4681C44C4600488048130BD10B52DED92
:1011D000068BB0EE408A18EE100AFFF7B0FA41EC29
:1011E000190B9FED1F0B53EC102BFFF7D3FA12D8FE
:1011F00018EE100AFFF7A3FA41EC1A0B9FED1A0B39
:1012000053EC102BFFF796F941EC190BFFF7DAFAC4
:1012100008EE100A1EE018EE100AFFF790FA41ECF3
:10122000190B9FED130B53EC102BFFF79BFA11D802
:1012300018EE100AFFF783FA41EC1A0B9FED0A0B28
:1012400053EC102BFFF7D5F841EC190BFFF7BAFA66
:1012500008EE100AB0EE480ABDEC068B10BD000087
:101260004AD8124DFB2109404AD8124DFB211940A2
:101270004AD8124DFB2109C0B0EE401A71EE601A37
:10128000B0EE610ADFED0D1AB4EEE10AF1EE10FAEC
:1012900006DDDFED0B1A70EE611AB0EE610A0CE0AC
:1012A000DFED081AB4EEE10AF1EE10FA05D2DFED37
:1012B000041A70EE211AB0EE610A7047DA0F494045
:1012C000DA0FC940DA0F49C000BFFEE700B58BB0A6
:1012D0000121082005F0EAFF0121480606F006F882
:1012E0000121480606F012F800214FF0007006F0C8
:1012F0000DF80320099002208DF8280000208DF8B9
:101300002A0003208DF8290001208DF82B0009A95F
:101310002D4802F063FF092200212B4802F0A6FFAE
:1013200009220121284802F0A1FF00208DF81E00AB
:1013300001208DF81F0000208DF820008DF821007D
:101340008DF822008DF823008DF81A008DF81B000F
:1013500005208DF81C0001208DF81D000520ADF83A
:10136000180006A9194800F0E8FA00208DF81200CC
:101370008DF8130001208DF814000020ADF808004E
:10138000ADF80A00ADF80C00ADF80E00ADF8100095
:1013900001208DF8150002A800F0B2F90122022107
:1013A0000A4800F0C1FA14208DF8040001208DF8DD
:1013B000050000208DF8060001208DF8070001A827
:1013C00005F02CFD0BB000BD000C02400064004095
:1013D0002DE9F04186B007460C4615461E46DDF85D
:1013E000308000208DF80D008DF80C0008208DF85D
:1013F0000E000197200A8DF80F008DF81040290A81
:101400008DF811108DF81250310A8DF813108DF8E7
:1014100014604FEA18218DF815108DF8168001A977
:10142000024800F08CFB06B0BDE8F081006400408B
:1014300000B585B00221094800F0E6F958B1022153
:10144000064800F009F96A460021044800F0FFFA56
:10145000684600F007FC05B000BD000000640040D5
:1014600000B58BB00121022005F020FF0121880684
:1014700005F03CFF0121880605F048FF00214FF0F0
:10148000806005F043FF4FF44050099002208DF832
:10149000280000208DF82A0003208DF82900012063
:1014A0008DF82B0009A92E4802F098FE09220C2184
:1014B0002B4802F0DBFE09220D21294802F0D6FE5E
:1014C00000208DF81E0001208DF81F0000208DF8EF
:1014D00020008DF821008DF822008DF823008DF872
:1014E0001A008DF81B0005208DF81C0001208DF8D6
:1014F0001D000520ADF8180006A91A4800F01DFAD5
:101500000E208DF8120000208DF8130001208DF8B8
:1015100014000020ADF80800ADF80A00ADF80C008A
:10152000ADF80E00ADF8100001208DF8150002A8EE
:1015300000F0E6F8012202210A4800F0F5F9402007
:101540008DF8040001208DF8050000208DF80600BC
:1015500001208DF8070001A805F060FC0BB000BD6C
:1015600000040240006800402DE9F04186B00746C3
:101570000C4615461E46DDF8308000208DF80D0023
:101580008DF80C0008208DF80E000197200A8DF8C8
:101590000F008DF81040290A8DF811108DF81250A7
:1015A000310A8DF813108DF814604FEA18218DF868
:1015B00015108DF8168001A9024800F0C0FA06B097
:1015C000BDE8F0810068004000B585B002210948FF
:1015D00000F01AF958B10221064800F03DF86A46B9
:1015E0000021044800F033FA684600F055FC05B0CD
:1015F00000BD0000006800402DE9F04186B00746BC
:101600000C4615461E46DDF8308000208DF80D0092
:101610008DF80C0008208DF80E000197200A8DF837
:101620000F008DF81040290A8DF811108DF8125016
:10163000310A8DF813108DF814604FEA18218DF8D7
:1016400015108DF8168001A9024800F078FA06B04E
:10165000BDE8F08100680040B1F5007F3AD00FDCB2
:10166000202928D006DC01291CD004291DD00829F6
:1016700040D11DE0402921D0B1F5807F3AD126E04C
:10168000B1F5004F31D006DCB1F5806F25D0B1F552
:10169000006F2FD124E0B1F5803F12D0B1F5003FAB
:1016A00028D111E0154A826025E00822C26022E0BC
:1016B0001022C2601FE0082202611CE010220261B9
:1016C00019E00822426016E01022426013E0042272
:1016D000426010E0042242600DE0042242600AE011
:1016E000002282610422426005E00022826104221D
:1016F000426000E000BF00BF704700000101010030
:1017000010B50021837A012202FA03F13D4A1268E2
:1017100042F001023B4B1A603A4A1C3212688A437B
:10172000384B1C331A60027BCAB9364A0C32126835
:101730008A43344B0C331A604288C38842EA03431D
:10174000304A4032847A42F834300288838842EA50
:1017500003432C4A4032847A02EBC4025360027B7A
:10176000012A19D1274A0C3212680A43254B0C333F
:101770001A604288038842EA0343224A4032847A4C
:1017800042F83430C288838842EA03431D4A40321B
:10179000847A02EBC4025360C27A3AB9194A121D24
:1017A00012688A43174B1B1D1A6006E0154A121D6A
:1017B00012680A43134B1B1D1A60028932B9114A81
:1017C000143212688A430F4B14331A600289012ABB
:1017D00006D10C4A143212680A430A4B14331A60B9
:1017E000427B012A06D1074A1C3212680A43054B84
:1017F0001C331A60034A126822F00102014B1A607E
:1018000010BD00000066004070B504460D4600267D
:1018100060692840002871D0B5F5807F5CD010DC6D
:10182000082D35D006DC012D20D0022D24D0042D2A
:1018300072D127E0102D31D0202D35D0402D6BD125
:1018400038E0B5F5004F60D009DCB5F5007F49D030
:10185000B5F5806F4CD0B5F5006F5DD14FE0B5F5B3
:10186000803F2DD0B5F5003F56D12FE0A0682D491F
:1018700001F08CFC064651E0E068032101F086FC93
:1018800006464BE0E068082101F080FC064645E092
:10189000E068102101F07AFC06463FE02069032150
:1018A00001F074FC064639E02069082101F06EFC65
:1018B000064633E02069102101F068FC06462DE061
:1018C0006068082101F062FC064627E0606810218C
:1018D00001F05CFC064621E0A069012101F056FC04
:1018E00006461BE0A069022101F050FC064615E007
:1018F000A069042101F04AFC06460FE00FE0A06950
:10190000702101F043FC064608E06068042101F004
:101910003DFC064602E0FFE7002600BF00E000268F
:10192000304670BD010101001AB143690B434361A8
:1019300002E043698B434361704730B502460020A3
:101940000023146824F002041460146844F00104B5
:10195000146000E05B1C546804F001041CB94FF6ED
:10196000FF74A342F6D1546804F001040CB90020BE
:101970006CE08C79012C04D1146844F0800414606C
:1019800003E0146824F080041460CC79012C04D1A5
:10199000146844F04004146003E0146824F0400428
:1019A00014600C7A012C04D1146844F020041460F3
:1019B00003E0146824F0200414604C7A012C04D154
:1019C000146844F01004146003E0146824F0100458
:1019D00014608C7A012C04D1146844F0080414605B
:1019E00003E0146824F008041460CC7A012C04D1BC
:1019F000146844F00404146003E0146824F0040440
:101A000014608C78A407CD7844EA05640D7944EA23
:101A100005444D7944EA05540D886D1E2C43D4616C
:101A2000146824F001041460002300E05B1C546877
:101A300004F001041CB14FF6FF74A342F6D15468C0
:101A400004F001040CB1002000E0012030BD10B50D
:101A500000F5D87303EB01131B6803F00403137242
:101A6000137A53B900F5D87303EB01131B6840F2E6
:101A7000FF7404EA5353136009E000F5D87303EBD5
:101A800001131B686FF0604404EAD303536000F550
:101A9000D87303EB01131B6803F00203537200F5C4
:101AA000D87303EB01135B6803F00F03937200F527
:101AB000D87303EB01135B681B0AD37400F5D8736A
:101AC00003EB01139B68D37200F5D87303EB01138A
:101AD0009B681C0A147300F5D87303EB01139B6811
:101AE0001C0C547300F5D87303EB01139B681B0E99
:101AF000937300F5D87303EB0113DB68D37300F520
:101B0000D87303EB0113DB681C0A147400F5D87357
:101B100003EB0113DB681C0C547400F5D87303EB62
:101B20000113DB681B0E937421B9C36843F02003D3
:101B3000C36003E0036943F02003036110BD10B5E7
:101B400002460020936803F08063B3F1806F00D1F8
:101B500010E0936803F00063B3F1006F01D101203E
:101B600008E0936803F08053B3F1805F01D1022055
:101B700000E00420042874D002F5C07303EB0013C6
:101B80001B6803F0010402F5C07303EB00131C6033
:101B90000B7A7BB94B7A0C8843EA445302F5C07444
:101BA00004EB00142468234302F5C07404EB001412
:101BB000236010E00B7A4C6843EAC4034C7A234359
:101BC00002F5C07404EB00142468234302F5C074CA
:101BD00004EB001423608B7A03F00F038B7202F581
:101BE000C07303EB00135B6823F00F0402F5C073AE
:101BF00003EB00135C6002F5C07303EB00135B683A
:101C00008C7A234302F5C07404EB001463608B7B71
:101C10001C064B7B44EA03440B7B44EA0323CC7A47
:101C2000234302F5C07404EB0014A3608B7C1C06F4
:101C30004B7C44EA03440B7C44EA0323CC7B2343E0
:101C400002F5C07404EB0014E36002F5C07303EB0B
:101C500000131B6843F0010402F5C07303EB00138B
:101C60001C6010BD10B504462068A0F201200A28AF
:101C70001ED2DFE800F0051E37506985A1BDD9F3FB
:101C8000207BE17A00EB012000B282490880A17B31
:101C9000607B01EB002000B27E494880217CE07B24
:101CA00001EB002000B27B4988800846FFF750FA1C
:101CB000EDE0207BE17A00EB012000B2754908825B
:101CC000A17B607B01EB002001B272484182217C44
:101CD000E07B01EB002001B26E4881821030FFF7FB
:101CE00037FAD4E0207BE17A00EB012000B26949A9
:101CF0000884A17B607B01EB002001B26548418430
:101D0000217CE07B01EB002001B26248818420301D
:101D1000FFF71EFABBE0207BE17A00EB012000B266
:101D20005C490886A17B607B01EB002001B2594829
:101D30004186217CE07B01EB002001B25548818681
:101D40003030FFF705FAA2E0207BE17A00EB0120BA
:101D500000B25049A1F84000A17B607B01EB00205C
:101D600001B24C48A0F84210217CE07B01EB00203E
:101D700001B24848A0F844104030FFF7E9F986E086
:101D8000207BE17A00EB012000B24249A1F850002B
:101D9000A17B607B01EB002001B23E48A0F852100D
:101DA000217CE07B01EB002001B23A48A0F85410FE
:101DB0005030FFF7CDF96AE0207BE17A00EB01209B
:101DC00000B23449A1F86000A17B607B01EB0020E8
:101DD00001B23048A0F86210217CE07B01EB0020CA
:101DE00001B22C48A0F864106030FFF7B1F94EE062
:101DF000207BE17A00EB012000B22649A1F87000B7
:101E0000A17B607B01EB002001B22248A0F8721098
:101E1000217CE07B01EB002001B21E48A0F8741089
:101E20007030FFF795F932E0207BE17A00EB01207A
:101E300000B21849A1F80001A17B607B01EB0020F2
:101E400001B21448A0F80211217CE07B01EB0020D4
:101E500001B21048A0F8041119E0FFE7207BE17AF5
:101E600000EB012000B20B49A1F81001A17B607BBF
:101E700001EB002001B20748A0F81211217CE07BA1
:101E800001EB002001B20348A0F8141100BF00BF0D
:101E900010BD00003004002010B504462068B0F5E5
:101EA000017F60D009DC302876D0A0F2012078B123
:101EB000012826D0022823D13CE0A0F205200028EA
:101EC0006ED001286AD0022869D00328F3D1B2E08D
:101ED000207BE17A00EB012000B27149A1F880007B
:101EE000A17B607B01EB002001B26D48A0F882105D
:101EF000217CE07B01EB002001B26948A0F884104E
:101F0000CBE0207BE17A00EB012000B26449A1F82C
:101F10009000A17B607B01EB002001B26048A0F83B
:101F20009210217CE07B01EB002001B25C48A0F81C
:101F30009410B2E0207BE17A00EB012000B2584916
:101F4000A1F8A000A17B607B01EB002001B2544806
:101F5000A0F8A210217CE07B01EB002001B25048E8
:101F6000A0F8A41099E0207BE17A00EB012000B2F8
:101F70004B49A1F8B000A17B607B01EB002001B2CE
:101F80004748A0F8B210217CE07B01EB002001B2B1
:101F90004348A0F8B41080E066E001E019E031E0C9
:101FA000207BE17A00EB012000B23D49A1F8C0009E
:101FB000A17B607B01EB002001B23948A0F8C21080
:101FC000217CE07B01EB002001B23548A0F8C41071
:101FD00063E0207BE17A00EB012000B23049A1F8F8
:101FE000D000A17B607B01EB002001B22C48A0F85F
:101FF000D210217CE07B01EB002001B22848A0F840
:10200000D4104AE0207BE17A00EB012000B22449A1
:10201000A1F8E000A17B607B01EB002001B2204829
:10202000A0F8E210217CE07B01EB002001B21C480B
:10203000A0F8E41031E0207BE17A00EB012000B24F
:102040001749A1F8F000A17B607B01EB002001B2F1
:102050001348A0F8F210217CE07B01EB002001B2D4
:102060000F48A0F8F41018E0207BE17A00EB012083
:1020700000B20C494880A17B607B01EB002000B2DC
:1020800008490880217CE07B01EB0020054988801D
:102090000DF050FD0349886000BF00BF10BD000077
:1020A000300400207005002010B50446207809286F
:1020B00022D2DFE800F00521090D211519111D00BC
:1020C000204600F0C7FD17E0204600F08FFA13E02D
:1020D000204600F057F90FE0204600F0DDFB0BE052
:1020E000204600F0D9FB07E0204600F0D5FB03E0D6
:1020F000204600F0FDFC00BF00BF94EDA70AD4ED20
:10210000A80A30EE600AD4EDA90A30EE600A84ED28
:10211000AC0A94EDA70AD4EDA80A30EE200AD4ED5B
:10212000A90A30EE600A84EDAD0A94EDA70AB1EE7B
:10213000400AD4EDA80A30EE200AD4EDA90A30EE08
:10214000600A84EDAE0A94EDA70AB1EE400AD4ED20
:10215000A80A30EE600AD4EDA90A30EE600A84EDD8
:10216000AF0A00201FE004F52C7101EB800191ED16
:10217000000AF1EE080AB4EEE00AF1EE10FA11DD01
:1021800004F52C7101EB800191ED000A20EE000AAC
:10219000F1EE080A80EE201A04F52C7101EB8001A3
:1021A00081ED001A401C0428DDDB10BD0246002032
:1021B00002E022F81010401C0428FADB704700B53A
:1021C0000246002305E0111D01EBC30000F052FDA3
:1021D0005B1C042BF7DB506A90F8380082F8D002C1
:1021E000506AD0F85700C2F8D402506AB0F85B00C9
:1021F000A2F8D802506AB0F85000A2F8DA0200BD86
:1022000010B504462078052805D10321D4F8DC0256
:1022100004F05CFB04E00221D4F8DC0204F056FB7D
:102220002078062805D10321D4F8E00204F04EFB03
:1022300004E00221D4F8E00204F048FB10BD0000E5
:1022400038B504460020207002234FF4166242F293
:1022500010719FED481ADFED470A9FED470A04F120
:1022600028000BF0FFF802234FF4166242F21071BF
:102270009FED401ADFED3F0A9FED3F0A04F1A000F9
:102280000BF0F0F802234FF4166242F210719FED4A
:10229000391ADFED380A9FED380A04F58C700BF01F
:1022A000E1F802234FF4166242F210719FED311AE9
:1022B000DFED300A9FED300A04F5C8700BF0D2F85C
:1022C000022309220421B1EE0C1ADFED2A0AB2EE34
:1022D000020A04F502700BF0C5F840F2012101205A
:1022E00002F028F8606040F20221012002F022F89A
:1022F000E06040F20321012002F01CF860614FF41D
:102300000171012002F016F8E06102F0E3F860626A
:10231000002008E09FED170A04F52C7101EB800105
:1023200081ED000A401C0428F4DB03F067F9C4F8CF
:10233000A80202F057F8C4F88802002104F53070B2
:10234000FFF734FF02200DA31422C82100904FF4A0
:102350006B7004F0A8F8C4F8DC02022008A3142271
:10236000C82100904FF4757004F09DF8C4F8E002A5
:1023700038BD000000000000000016454C000000C1
:102380005200000010B50446D4F88802007D00F029
:10239000100000284AD000208D4908608D4908604F
:1023A0008D490860D4F88802007D00F0010020B15A
:1023B000884800680A3087490860D4F88802007DA0
:1023C00000F0020020B1834800680A3881490860A3
:1023D000D4F88802007D00F0040020B17C48006839
:1023E0000A387B490860D4F88802007D00F00800B4
:1023F00020B1774800680A3075490860D4F888022F
:10240000007D00F0400020B1734800680A3872492E
:102410000860D4F88802007D00F0800000284ED0CB
:102420006D4800680A306C49086048E0002068493F
:1024300008606849086068490860D4F88802007D2F
:1024400000F0010020B163480068001D6149086088
:10245000D4F88802007D00F0020020B15D480068D9
:10246000001F5C490860D4F88802007D00F0040079
:1024700020B157480068001F55490860D4F8880209
:10248000007D00F0080020B151480068001D50494F
:102490000860D4F88802007D00F0400020B14E486A
:1024A0000068001F4C490860D4F88802007D00F0E5
:1024B000800020B148480068001D4749086004F5C5
:1024C00022742068B0F9000000EE100AB8EEC00ACD
:1024D0009FED421AC0EE010A3D4890ED000AB8EEA9
:1024E000C00AB2EE041A00EE810ABDEEC00A80ED09
:1024F000000A2068B0F9020000EE100AB8EEC00A27
:102500009FED361AC0EE010A324890ED000AB8EE8F
:10251000C00AB2EE041A00EE810ABDEEC00A80EDD8
:10252000000A206AD0ED000AF1EE600AB0EE600AFF
:10253000FDF7FAFE2A4880ED000A206AD0ED000A75
:10254000F1EE600AB0EE600AFDF7B2FE254880EDBC
:10255000000AD0ED000A1E4890ED000AB8EEC00A4D
:1025600020EE800A1E4890ED001A1A48D0ED000AAD
:10257000F8EEE00A01EE200A84ED050A184890ED15
:10258000000AF1EE400A124890ED000AB8EEC00AC7
:1025900020EE800A134890ED001A0E48D0ED000A94
:1025A000F8EEE00A01EE200A84ED060A206AA4F59E
:1025B0002274D0ED000AB0EE600ADFED0B0A04F5DC
:1025C00002700AF04DFEB1EE400A84EDA90A10BD7A
:1025D0005002002054020020580200200000254430
:1025E000340200203802002000000000D0F88812D9
:1025F000097D01F0100100294AD000216C4A1160C8
:102600006C4A11606C4A1160D0F88812097D01F0A3
:10261000010121B1674909680A31664A1160D0F8A1
:102620008812097D01F0020121B1624909680A3965
:10263000604A1160D0F88812097D01F0040121B1CF
:102640005B4909680A395A4A1160D0F88812097D35
:1026500001F0080121B1564909680A31544A116054
:10266000D0F88812097D01F0400121B15249096872
:102670000A39514A1160D0F88812097D01F08001B1
:1026800000294ED04C4909680A314B4A116048E094
:102690000021474A1160474A1160474A1160D0F84B
:1026A0008812097D01F0010121B142490968091D23
:1026B000404A1160D0F88812097D01F0020121B171
:1026C0003C490968091F3B4A1160D0F88812097D0E
:1026D00001F0040121B136490968091F344A11602B
:1026E000D0F88812097D01F0080121B1304909684C
:1026F000091D2F4A1160D0F88812097D01F04001B0
:1027000021B12D490968091F2B4A1160D0F88812A0
:10271000097D01F0800121B127490968091D264A78
:102720001160D0F88812B1F9001000EE101AB8EE5E
:10273000C00A9FED221AC0EE010A1D4991ED000A60
:10274000B8EEC00AB2EE041A00EE810A80EDA70AC4
:10275000D0F88812B1F9021000EE101AB8EEC00AD3
:102760009FED161AC0EE010A124991ED000AB8EE6B
:10277000C00AB2EE041A00EE810A80EDA80AD0F871
:102780008812B1F9081000EE101AB8EEC00A9FEDD9
:102790000B1AC0EE010A084991ED000AB8EEC00A12
:1027A000B2EE041A00EE810A80EDA90A704700001B
:1027B00044020020480200204C0200200000254472
:1027C000D0F88812C97A022902D10021017053E0A1
:1027D000D0F88812C97A032902D1022101704BE096
:1027E000D0F88812C97A012946D1294909680329F4
:1027F00001D1017040E02749097801F0400189B911
:10280000D0F88812097D01F0400159B101780529FD
:1028100002D00178062902D1032101702CE00521A4
:10282000017029E01B49097801F0800189B9D0F8CD
:102830008812097D01F0800159B10178052902D083
:102840000178062902D10321017015E006210170EB
:1028500012E01049098801F4806169B9D0F8881242
:10286000898A01F4806139B10178082902D10321F4
:10287000017001E008210170D0F88812898A054AA8
:102880001160D0F88812C97A014A116070470000BF
:10289000680200206402002010B52DED048B044670
:1028A000D4F88802B0F9000000EE100AF8EEC00A71
:1028B0009FED8A1A80EE810AF2EE040A20EE200AC9
:1028C000B0EE408AD4F88802B0F9020000EE100A97
:1028D000F8EEC00A9FED811A80EE810AF2EE040A3A
:1028E00020EE200AF0EE408AD4F88802B0F9080001
:1028F00000EE100AF8EEC00A9FED781A80EE810A09
:10290000F2EE040A20EE200AB0EE409A9FED740A1F
:1029100084EDA70A9FED720A84EDA80A9FED700A64
:1029200084EDA90AD4F88802007D00F01000E8B315
:102930009FED6B0A84EDA70A9FED690A84EDA80A52
:102940009FED670A84EDA90AD4F88802007D00F0A3
:10295000010028B1B2EE040A38EE800AF0EE408A97
:10296000D4F88802007D00F0020028B1B2EE040A1B
:1029700038EEC00AF0EE408AD4F88802007D00F0FC
:10298000040028B1B2EE040A38EE400AB0EE408AE4
:10299000D4F88802007D00F0080028B1B2EE040AE5
:1029A00038EE000AB0EE408A207800E00EE00628FB
:1029B00004D1BAEE040AB0EE409A52E0207805281D
:1029C0004FD1B2EE040AB0EE409A4AE09FED440ABD
:1029D00084EDA70A9FED420A84EDA80A9FED400A04
:1029E00084EDA90AD4F88802007D00F0010028B126
:1029F000B1EE000A38EE800AF0EE408AD4F8880280
:102A0000007D00F0020028B1B1EE000A38EEC00AE5
:102A1000F0EE408AD4F88802007D00F0040028B16E
:102A2000B1EE000A38EE400AB0EE408AD4F88802CF
:102A3000007D00F0080028B1B1EE000A38EE000A6F
:102A4000B0EE408A2078062804D1B9EE000AB0EE34
:102A5000409A06E02078052803D1B1EE000AB0EED6
:102A6000409AD4F8A802D0ED000AF1EE600AB0EE68
:102A7000600AFDF759FC1B4880ED000AD4F8A80253
:102A8000D0ED000AF1EE600AB0EE600AFDF710FC2E
:102A9000154880ED000A90ED000A20EE080A114862
:102AA000D0ED000A00EEA80A84EDA70A90ED000A16
:102AB000B1EE400A20EE080A0B48D0ED000A00EE05
:102AC000A80A84EDA80A84EDA99AD4F88802808A1D
:102AD00006490860BDEC048B10BD000000002544D1
:102AE0000000000034020020380200205C020020B8
:102AF00010B52DED048B0446D4F88802B0F900001F
:102B000000EE100AB8EEC00ADFED4C0A80EE201A83
:102B1000B2EE040A21EE000AB0EE408AD4F8880230
:102B2000B0F9020000EE100AF8EEC00A9FED431A59
:102B300080EE810AF2EE040A20EE200AF0EE408ACE
:102B4000D4F88802B0F9080000EE100AF8EEC00AC6
:102B50009FED3A1A80EE810AF2EE040A20EE200A76
:102B6000B0EE409A9FED360A84EDA70A9FED340A35
:102B700084EDA80A9FED320A84EDA90A3148006865
:102B8000401C3049086008460068B0F57A7F02DBD7
:102B900006202D4908602B480068B0F5FA6F02DB6B
:102BA0000820294908602748006840F6B831884263
:102BB00005DB0420244908600020224908602078B1
:102BC000082808D120480068404200EE100AB8EEFC
:102BD000C00AB0EE409AD4F8A802D0ED000AB0EED8
:102BE000600AFDF7A1FB194880ED000AD4F8A8029D
:102BF000D0ED000AB0EE600AFDF75AFB144880EDF4
:102C0000000A90ED000A20EE080A1048D0ED000AF4
:102C100000EEA80A84EDA70A90ED000AB1EE400A82
:102C200020EE080A0A48D0ED000A00EEA80A84ED5A
:102C3000A80A84EDA99ABDEC048B10BD00002544C0
:102C4000000000003C02002040020020340200206E
:102C5000380200209FED060A80EDA70A9FED040AC6
:102C600080EDA80A9FED020A80EDA90A70470000D6
:102C7000000000000168B1F9021000EE101AB8EE71
:102C8000C00ADFED030A20EE200A80ED010A70473A
:102C90001792A63A10B50446207880B99FED240A11
:102CA00084EDB00A9FED220A84EDB10A9FED200A5F
:102CB00084EDB20A9FED1E0A84EDB30A37E094ED6D
:102CC000AC1AF0EE410A94ED021AB0EE410A04F19A
:102CD000280000F059F984EDB00A94EDAD1AF0EE39
:102CE000410A94ED041AB0EE410A04F1A00000F08C
:102CF0004BF984EDB10A94EDAE1AF0EE410A94ED71
:102D0000061AB0EE410A04F58C7000F03DF984ED2E
:102D1000B20A94EDAF1AF0EE410A94ED081AB0EE43
:102D2000410A04F5C87000F02FF984EDB30A10BD14
:102D30000000000070B52DED0C8B044603F028FB5D
:102D4000002870D094F8D0026628FAD094F8D00207
:102D50000228F6D09FED660AB0EE408A9FED640A25
:102D6000F0EE408AB4F8D8023C2801DA322500E0BF
:102D7000BE25B4F8DA0200EE100AB8EE400AF0EE12
:102D8000000A80EE209AB4F8D802A8421CDAB4F8FF
:102D9000D80200EE900AF8EE600AB1EE041AF4EEE2
:102DA000C10AF1EE10FA06DDB4F8D80200EE900A7E
:102DB000B8EE600A01E0B1EE040ADFED4E0A60EE03
:102DC000200AB0EE608A3CE094EDB50AB4EEC90A80
:102DD000F1EE10FA28DD94EDB51AB4F8DA0200EE3F
:102DE000900AF8EE600AB4EEE01AF1EE10FA0AD298
:102DF000B4F8DA0200EE900AF8EE600A94EDB51A23
:102E000030EEC10A01E09FED3A0A05EB8500800132
:102E100000EE900AF8EEE00A9FED371AB0EE608AF5
:102E200001EE008A0DE060E005EB8500800100EE18
:102E3000100AB8EEC00ADFED300AB0EE408A00EEAC
:102E4000898A9FED2B0AF0EE408A002628E004F5DF
:102E5000307000EB860090ED000A10EE101A084664
:102E6000FDF76DFC41EC1D0BB0EE4D0AF0EE6D0A66
:102E700008F042FEB0EE40BAF0EE60BA18EE900AEA
:102E8000FDF75DFC41EC1C0B53EC1B2BFDF7B1FA7D
:102E900041EC1A0BFDF796FC08EE900A701CC6B2C6
:102EA000042ED4DBF4EEC88AF1EE10FA1CDDC8EE75
:102EB000280AB0EE600AD4EDB00A60EE800AC4EDD4
:102EC000B00AD4EDB10A60EE800AC4EDB10AD4EDC7
:102ED000B20A60EE800AC4EDB20AD4EDB30A60EE25
:102EE000800AC4EDB30A00BF00BFBDEC0C8B70BDFF
:102EF000000000000000A0430000FA4308B5642071
:102F00000BF008FF1F48FFF79BF939E01D48FFF75A
:102F100057FC1C48FFF753F91A48FFF7C5F8194842
:102F2000FFF7B8FE1748FFF705FF1648FFF768F9E7
:102F3000144890EDB30ABDEEC00A10EE100A80B23C
:102F40000090104890EDB20ABDEEC00A10EE100AD3
:102F500083B20C4890EDB10ABDEEC00A10EE100A23
:102F600082B2084890EDB00ABDEEC00A10EE100A19
:102F700081B24FF40070FEF7F7FA01200BF0CAFEA1
:102F8000C4E70000D01A022010B52DED0A8B0446CC
:102F9000B0EE408AF0EE608A84ED0D8AC4ED0C8AB2
:102FA00094ED0C0AD4ED0D0A30EE600A84ED080AA7
:102FB000E06B012866D194ED000AD4ED080A20EEFA
:102FC000200A10EE101A0846FDF7B9FBC4E9040107
:102FD00094ED010AD4ED0B0A20EE200A84ED060AD6
:102FE00094ED080AD4ED090A30EE600AD4ED020A25
:102FF00020EE200A84ED070A94ED0B0AD4ED080AAE
:1030000030EE200A84ED0B0A9FED5F0A04F12C00DC
:1030100004F0A8F8D4ED110AB0EE600A04F118002B
:1030200004F0A0F894ED070A10EE101A0846FDF718
:1030300086FB41EC1A0B94ED060A10EE101A0846B6
:10304000FDF77DFB41EC1C0B94ED041BB0EE410A37
:10305000F0EE610A53EC102BFDF7CBF941EC1B0BA2
:1030600053EC1A2BFDF7C5F941EC190BFDF7AAFB40
:10307000A063D4ED100AB0EE600A04F1380004F049
:1030800071F874E0E06B022871D194ED080AD4ED78
:10309000090A30EE600AD4ED000A20EE200A10EE94
:1030A000101A0846FDF74BFBC4E9040194ED010A30
:1030B000D4ED080A20EE200A84ED060A94ED080AF1
:1030C000D4ED090AB0EE001A01EE600AD4ED0A0A46
:1030D00030EE200AD4ED020A20EE200A84ED070A21
:1030E000D4ED110AB0EE600A04F1180004F03AF8C9
:1030F00094ED070A10EE101A0846FDF720FB41EC8C
:103100001A0B94ED060A10EE101A0846FDF717FB8D
:1031100041EC1C0B94ED041BB0EE410AF0EE610A89
:1031200053EC102BFDF765F941EC1B0B53EC1A2BFC
:10313000FDF75FF941EC190BFDF744FBA06494ED3A
:10314000140AD4ED120A30EE200A84ED130A94ED2D
:10315000130A84ED0E0AD4ED100AB0EE600A04F1F1
:10316000380003F0FFFF94ED130A84ED140A94ED88
:10317000090A84ED0A0A94ED080A84ED090A94ED1F
:103180000E0ABDEC0A8B10BD00401C460246002012
:1031900002EA01030BB1012000E0002070470000AB
:1031A0002DE9F84F07460C4690464FF00009CA46F5
:1031B00000250026A346A01D00900425A7F150007D
:1031C00010283AD2DFE800F01608190F1E2326292E
:1031D0002C2F3239393939354FF0340903254FF066
:1031E000400A01262BE04FF03D0903254FF02E0A3F
:1031F000012624E04FF0300921E04FF037094FF06D
:1032000003081CE04FF03A094FF0030817E04FF0B5
:10321000410914E04FF0450911E04FF049090EE073
:103220004FF04D090BE04FF0510908E04FF0550900
:1032300005E01448D0F8009001E0BDE8F88F00BF29
:10324000B8F1030F01D1032500265DB16A000E49D4
:1032500001EB49005946FDF7A1F8294648460B4ABB
:10326000126890475EB17200074901EB4A0000996D
:10327000FDF794F831465046044A1268904700BF63
:10328000DBE7000094020020C8200220800200201A
:1032900070B506460C4604F08000802808D104F082
:1032A0007F0000EB800106F58E7000EBC10507E0A2
:1032B00004F07F0000EB800106F55D7000EBC105B6
:1032C00004F07F00287004F08000C009687029466F
:1032D000304607F03EFB002070BD70B506460C4638
:1032E00004F08000802808D104F07F0000EB80010A
:1032F00006F58E7000EBC10505E004EB840106F5D0
:103300005D7000EBC1050020A87004F07F002870FC
:10331000C4F3C01068702946304607F0F2FA002066
:1033200070BD2DE9F04106460D4690461F4605F05A
:103330008000802808D105F07F0000EB800106F5B1
:103340008E7000EBC10407E005F07F0000EB800108
:1033500006F55D7000EBC10405F07F00207005F0FC
:103360008000C0096070C4F80880E770607808B118
:103370002078E080022F01D10020207121463046C4
:1033800007F073FA0020BDE8F0812DE9F041054611
:103390000E461746984606F07F0000EB800105F5C3
:1033A0005D7000EBC104E760C4F814800020A061E8
:1033B000607006F07F002070E878012800D1276156
:1033C000207820B92146284607F073F903E021460A
:1033D000284607F03DFB0020BDE8F08108B500223B
:1033E0000092009A61F30A12009202691268009B2F
:1033F0001A4303691A6008BD70B506460C4604F00E
:103400008000802808D104F07F0000EB800106F5E1
:103410008E7000EBC10505E004EB840106F55D70DC
:1034200000EBC1050120A87004F07F002870C4F3F0
:10343000C01068702946304607F0D8FA002070BDE9
:103440002DE9F04107460D461646984605F07F00E7
:1034500000EB800107F58E7000EBC1040120607065
:1034600005F07F002070E66026610020A061C4F8AE
:103470001480207820B92146384607F01AF903E075
:103480002146384607F0E4FA0020BDE8F08100004C
:1034900030B587B00546594C284607F0D0F801A84A
:1034A00003F064FF029CE868C0680590059820F46A
:1034B000705005900598E968C860284607F090FCB0
:1034C00003280BD10020A8704FF40070A880059845
:1034D00020F4705000F5105005907EE00120A87097
:1034E0004020A8804648844209D34648844206D2F8
:1034F000059820F4705000F5605005906DE041484B
:10350000844209D34048844206D2059820F4705082
:1035100000F55050059060E03B48844209D33B4899
:10352000844206D2059820F4705000F54050059072
:1035300053E03648844209D33548844206D2059880
:1035400020F4705000F53050059046E03048844239
:1035500009D33048844206D2059820F4705000F513
:103560002050059039E02B48844209D32A488442F0
:1035700006D2059820F4705000F5105005902CE00C
:103580002548844209D32548844206D2059820F470
:10359000705000F5005005901FE02048844209D388
:1035A0001F48844206D2059820F4705000F5E05080
:1035B000059012E01A48844209D31A48844206D280
:1035C000059820F4705000F5C050059005E005986E
:1035D00020F4705000F5A05005900598E968C86087
:1035E00000200690069820F4005000F50050069048
:1035F0000698E9684861012007B030BD007A030AE7
:10360000C0E1E4000024F400E0EC040100C3180170
:10361000002D310140A44C0100366E0140E29501BD
:1036200080C3C90160600B02F8B505460024002084
:103630000090284607F015FC064681E006F00100E0
:1036400000287BD0E1B2284600F0F6FA00900098FE
:1036500000F0010030B3012000FA04F72869406B44
:10366000B8432969486300200090009820F00100C9
:10367000401C009005F1180050F82400009981606A
:10368000E1B232480068426828469047E87801284D
:1036900008D13CB940F21110405D042802D12846FF
:1036A00007F0B2F80098C0F3C00060B100200090AD
:1036B000009820F008000830009005F1180050F83C
:1036C0002400009981600098C0F3001060B10020D0
:1036D0000090009820F010001030009005F11800C4
:1036E00050F82400009981600098C0F3801060B108
:1036F00000200090009820F040004030009005F13C
:10370000180050F82400009981600098C0F3400030
:1037100060B100200090009820F00200801C009012
:1037200005F1180050F82400009981600098C0F35A
:10373000C01018B12146284600F092FA641C7608A1
:10374000002E7FF47BAF0120F8BD0000280300208D
:103750007CB50446002500200190204607F089FB37
:1037600006466FE006F00100002869D0E9B2204665
:1037700007F087FB0190019800F00100C8B300201A
:103780000190019820F00100401C019004F15400C8
:1037900050F8250001998160E078012817D104F1E3
:1037A000540050F825000069009005EB850104F5F0
:1037B0005D7000EBC10080680099C1F31201411AED
:1037C00005EB850204F55D7000EBC2008161E9B292
:1037D0001E480068026820469047E078012808D11A
:1037E0003DB940F21110005D052802D1204607F0D6
:1037F0000BF80198C0F3400060B1002001900198DF
:1038000020F00200801C019004F1540050F82500C3
:10381000019981600198C0F3C00088B10B4800682D
:1038200081682046884700200190019820F0080018
:103830000830019004F1540050F82500019981608E
:103840006D1C7608002E8DD101207CBD2803002040
:103850003EB50446A07A78B1D4F80C010068009017
:10386000009820F002000090009820F001000090E5
:103870000099D4F80C01016000200190019820F01B
:103880000100401C0190206940680199884321692A
:1038900048600948006881692046884700200290F6
:1038A000029820F0004000F1004002900298E16888
:1038B000486101203EBD0000280300207CB504467D
:1038C00000200190019820F0100010300190E06875
:1038D000806901998843E1688861E068006A009026
:1038E000009800F00F0000EB800104F55D7000EB24
:1038F000C1050098C0F3434007282DD2DFE800F04F
:103900002C04051D1E2C1F0027E00098C0F30A1090
:1039100090B10098C0F30A122046E96807F0BBFA9C
:10392000E8680099C1F30A110844E860A8690099A1
:10393000C1F30A110844A8610FE00EE00DE008226F
:1039400004F2CC51204607F0A6FAA8690099C1F309
:103950000A110844A86100E000BF00BFE068806968
:1039600001990843E168886101207CBD38B50446AF
:1039700008480068C16820468847002000900098E9
:1039800020F00800083000900098E16848610120AC
:1039900038BD0000280300201FB504460020009019
:1039A0004FF48970005D009023480068416920460B
:1039B000884720698068019000200390039820F4D4
:1039C000006000F5006003900398E1684861A07A08
:1039D00070B3019800F0010050B340F21510005D83
:1039E000012825D19DF80000032821D10020029054
:1039F000029820F00100401C0290D4F80C010068ED
:103A000002990843D4F80C110860029820F00200D3
:103A1000801C0290D4F80C01006802990843D4F885
:103A20000C1108600548006840F006000349086072
:103A3000012004B010BD00002803002010ED00E0BC
:103A400030B587B00446002002900690059004909F
:103A500003900190029820F00100401C0290206920
:103A6000406802998843216948600021204607F098
:103A70008DF900250BE0FF2104F1180050F8250016
:103A8000816004F1540050F8250081606D1C60785D
:103A9000A842F0D84FF0FF312069816106986FF39A
:103AA0000F00401C0690069880B200F5803006900A
:103AB00006992069C161059820F00800083005903A
:103AC000059820F00100401C0590059820F00200A8
:103AD000801C0590059920694161049820F001003F
:103AE000401C0490049820F00800083004900498CA
:103AF00020F00200801C0490049920690161206973
:103B000000680390039820F4FE60039003992069F5
:103B10000160204606F078FE00200190019820F414
:103B2000805000F5805001900198E1684861044898
:103B30000068016920468847012007B030BD0000B9
:103B4000280300202DE9F04106460F46394630464D
:103B500007F0B6F901214FF4897081550021801CCE
:103B60008155002511E005EB850106F58E7000EB0F
:103B7000C104012060702570E5800020E0704020C5
:103B8000A0600020E06060616D1C7078A842EAD8F7
:103B9000002510E005EB850106F55D7000EBC10422
:103BA000002060702570E580E0704020A06000205B
:103BB000E06060616D1C7078A842EBD8304606F07A
:103BC0002DFD304606F057FB0021304607F0E0F9A6
:103BD000304606F0E3FB304607F0A0F8BDE8F08180
:103BE00038B504460020009007480068C1692046A7
:103BF0008847009820F4801000F58010009000980D
:103C0000E1684861012038BD2803002038B504462A
:103C10000020009007480068016A20468847009805
:103C200020F4001000F5001000900098E168486151
:103C3000012038BD2803002030B5024615692B69E4
:103C400015696C6B24FA01F505F0010543EAC5130B
:103C500002F1180555F82150AD6805EA030030BDA2
:103C60002DE9F84306460F4600250020009007EB9B
:103C7000870106F58E7000EBC104D4E90501451AF1
:103C8000A068A84200D2A568E81C4FEA900906F196
:103C9000180050F827008069009029E0D4E9050158
:103CA000451AA068A84200D2A568E81C4FEA90090E
:103CB000ABB2FAB23046E16807F0ADF9E0682844EB
:103CC000E060A0692844A06106F1180050F82700C0
:103CD00080690090D4E90501884209D1217801204A
:103CE00000FA01F83069406B20EA08003169486346
:103CF000009880B2484506D9D4E90510884202D21E
:103D000060690028CAD10120BDE8F8834748B0F9AE
:103D10000000474908604548B0F902004860434840
:103D2000B0F9040088604148B0F90600C8603F4817
:103D3000B0F9080008613D48B0F90C0048613B4803
:103D4000B0F90E0088613948B0F91000C8613748F1
:103D5000807C08623548C07C48623448808A88622A
:103D600034480068002853D10846006800284FD125
:103D70003048406800284BD108464068002847D1A9
:103D80002C488068002843D10846806800283FD12D
:103D90002848C06800283BD10846C068002837D1B1
:103DA0002448006998BB0846006980BB21484069E7
:103DB00068BB0846406950BB1E48806938BB08464E
:103DC000806920BB1B48C06908BB0846C069F0B9C0
:103DD0001848006AD8B90846006AC0B91548406A50
:103DE000A8B90846406A90B91248806A78B908466E
:103DF000806A60B9002006E00D4951F820100D4A94
:103E000042F82010401C0C28F6DB00207047FFE72A
:103E1000002006E0064951F82010064A42F820101A
:103E2000401C0C28F6DB0120F0E70000781302208C
:103E300090130220C013022010B54FF02051084803
:103E400000F00AF958B14FF02051054800F00CF885
:103E50000021034800F022F8024800F0A5F910BD47
:103E6000B8640240AC2302200246094B9A4201D2B8
:103E7000084801E00648103801F000531BB1064B1A
:103E80000B40C36002E0044B0B40836070470000AE
:103E900010640240006002407D0F7D0F21B1026876
:103EA00042F00102026003E0026822F001020260B7
:103EB00070470000016821F00101016000210160EC
:103EC00041608160C1600161212141614A498842AC
:103ED00004D13D21484A103A91608CE0464918319E
:103EE000884205D14FF47461434A103A916082E0F0
:103EF00041493031884205D14FF474113E4A103A9D
:103F0000916078E03C494831884205D14FF07461B6
:103F1000394A103A91606EE037496031884204D1E5
:103F20003649354A103AD16065E0334978318842E4
:103F300004D13349304A103AD1605CE02E499031C7
:103F4000884204D12F492C4A103AD16053E02A49C3
:103F5000A831884205D14FF03D51274A103AD1602F
:103F600049E02949884204D13D21274A083A116095
:103F700041E025491831884205D14FF47461224A45
:103F8000083A116037E020493031884205D14FF4BA
:103F900074111D4A083A11602DE01B4948318842CE
:103FA00005D14FF07461184A083A116023E01649B0
:103FB0006031884204D11149134A121F11601AE07E
:103FC00011497831884204D10D490F4A121F1160FE
:103FD00011E00D499031884204D10A490A4A121F62
:103FE000116008E00849A831884204D14FF03D51E2
:103FF000054A121F11607047106002403D0000200A
:10400000400F002000003D201064024021B10268F2
:1040100042F48022026003E0026822F480220260FF
:10402000704722B1036843F40023036003E0036890
:1040300023F400230360016170470146486880B2A1
:104040007047014600200A6802F400220AB10120EC
:1040500000E000207047000030B503460A4600200B
:1040600000240B4DAB4201D20A4901E00849103946
:1040700002F000550DB14C6800E00C68064D2C4074
:1040800004EA02050DB1012000E0002030BD00006F
:1040900010640240006002407D0F7D0F10B501F0FA
:1040A00080034BB122B1436943F08003436103E0D5
:1040B000436923F08003436180290BD02AB1036850
:1040C00001F01E042343036004E0036801F01E04B2
:1040D000A343036010BD000010B500220268134B1B
:1040E0001A40CC680B6823434C6923438C692343F3
:1040F000CC6923430C6A23434C6A23438C6A2343D1
:104100004C6B23438C6B23431A430260426922F0B9
:104110000702D1E90B3423431A4342610B69436020
:104120004B6883608B68C36010BD00003F801CF04B
:10413000416070472DE9F047044625462A7905215C
:1041400020460BF05DF8D0B1B5F8017007F1090019
:1041500086B2B01E00EB0408B8F8002031462046B5
:104160000BF034F840B104F10709B5F805203946E1
:10417000484602F0EBFB00BF3046BDE8F087C820A0
:10418000FBE770B50546002406E02819FFF7D2FFCB
:104190000646A01984B200BFC82CF6DBC821284609
:1041A000FCF715F970BD000010B504460349D1F8BD
:1041B000600300210BF0B6FB10BD00001C220220A2
:1041C000704710B50446204608F0FAFB10BD000009
:1041D0000149086070470000143C0140F0B50A46F0
:1041E00000210023002400BF3DE0012505FA01F372
:1041F000156805EA03049C4234D105684F00032684
:10420000BE40B543056015794E00B540066835439C
:1042100005601579012D02D01579022D16D185681A
:104220004F000326BE40B543856055794E00B5402A
:10423000866835438560456801268E40B5434560F4
:10424000456896798E40B6B235434560C5684F00E3
:104250000326BE40B543C560D5794E00B540C6685B
:104260003543C560491C1029BFD3F0BDF0B500230C
:1042700000244D07ED0E02FA05F3CE1000F12005E3
:1042800055F826504E07F70E0F26BE40B543CF1007
:1042900000F1200646F82750CE1000F1200555F811
:1042A000265045EA0304CE1000F1200545F82640CB
:1042B000F0BD0246002013690B400BB1012000E065
:1042C0000020704741837047018370474FF6FF71AC
:1042D00001600021017141718171C171704700005D
:1042E00070B50146104D95F89022642592FBF5F5C6
:1042F000ABB2642592FBF5F605FB1625ACB20020A7
:1043000049B920461BB100F5B275A8B20AE000F524
:104310008075A8B206E003EBC30505EB031501EBBE
:104320008505A8B270BD00001C220220004870471D
:1043300070050020024612B1012A4BD127E0A1F2FC
:1043400001200A2822D2DFE800F005070A0D101329
:1043500016191C1E2148704720481030FBE71F48E3
:104360002030F8E71D483030F5E71C484030F2E7D0
:104370001A485030EFE719486030ECE717487030C2
:10438000E9E71748E7E716481030E4E722E0A1F232
:10439000012008281DD2DFE800F004070A0D1013E1
:1043A00016190E488030D6E70D487038D3E70C4810
:1043B0006038D0E70A485038CDE709484038CAE7A6
:1043C00007483038C7E706482038C4E704481038A3
:1043D000C1E700BF00BF0020BDE70000300400209F
:1043E00030050020004870477813022010B52DEDED
:1043F000048B044601F0CCFF002858D0B4F8CE015D
:104400000F2808DCB4F8CE0100EE100AB8EE400A1E
:10441000BDEC048B10BDB4F8CE01122812DCB4F848
:10442000CE01FCF77FF941EC190B9FED240B53EC07
:10443000102BFCF785F841EC180BFCF7C3F900EEE4
:10444000100AE5E7B4F8CE01162812DCB4F8CE0164
:10445000FCF768F941EC190B9FED1A0B53EC102B8C
:10446000FCF76EF841EC180BFCF7ACF900EE100A03
:10447000CEE7B4F8CE011E2812DCB4F8CE01FCF76A
:1044800051F941EC190B9FED110B53EC102BFCF77C
:1044900057F841EC180BFCF795F900EE100AB7E756
:1044A000B4F8AE0100EE100AB8EE400AB0E7B4F876
:1044B000AE0100EE100AB8EE400AA9E7666666662D
:1044C0006666EE3F333333333333EB3F0000000097
:1044D0000000E83F004870477424022070B50A4885
:1044E0000468001D0568001D0668344454B10822A4
:1044F0000649204601F02CFF0422044910312846C9
:1045000001F026FF70BD0000107AFF1F6A03002033
:1045100010B52DED028B044601F03AFF002873D050
:1045200094ED760A10EE101A0846FCF708F941ECF3
:10453000180B9FED4B0B53EC102BFCF72BF903D80A
:104540000020BDEC028B10BD94ED760AB5EEC00ADA
:10455000F1EE10FA2FDB94ED760A10EE101A0846F1
:10456000FCF7EDF841EC180B9FED3F0B53EC102BD3
:10457000FCF7F8F81FD2B4F8D401322801DC03208C
:10458000DFE7B4F8D401642801DC0720D9E7B4F8E8
:10459000D401962801DC0A20D3E7B4F8D401B0F5A1
:1045A0008C7F01DC1220CCE7B4F8D401B0F5C87FD1
:1045B00053DC1A20C5E794ED760A10EE101A08466F
:1045C000FCF7BDF841EC180B9FED270B53EC102BBB
:1045D000FCF7E0F82DD894ED760AD4ED770AB7EE23
:1045E000001A71EE600AB4EEE00AF1EE10FA20D87B
:1045F000B4F8D401322801DC0120A2E7B4F8D401D8
:10460000642802DC02209CE727E0B4F8D401962855
:1046100001DC032095E7B4F8D401B0F58C7F01DC10
:1046200004208EE7B4F8D401B0F5C87F15DC05206E
:1046300087E794ED760AD4ED770AB7EE001A71EEAB
:10464000600AB4EEE00AF1EE10FA06DDB4F8D40127
:104650000A2190FBF1F0C0B273E794F8AC0170E767
:10466000666666666666EE3F333333333333E33F65
:1046700010B52DED048B04462068B0F9000000EE63
:10468000100AB8EEC00ADFED1E0A30EE600ADFED58
:104690001C0A80EE201A9FED1B0A21EE000A84ED11
:1046A000030A606890ED000ADFED170A80EE201A19
:1046B0009FED160A21EE000A84ED040A94ED051A16
:1046C000F0EE410A94ED031AB0EE410AFCF7D4FD76
:1046D00084ED060A2168B1F90200FCF712F841ECFA
:1046E000190B9FED0B0B53EC102BFBF79BFF41ECD1
:1046F000180BFCF767F8A062BDEC048B10BD00003E
:1047000000008045DA0F494000003443DB0F494088
:10471000CDCCCCCCCC8C774010B52DED028B0446A3
:104720004FF4CB60005990ED000AB1EE400A04F559
:10473000CA6080ED0B0AD0ED060AB0EE600AFBF706
:10474000B7FDD4F88406D0ED020A20EE208A04F5E5
:10475000CA60D0ED060AB0EE600AFBF7E5FDD4F8BA
:104760008406D0ED010A00EE608A04F5C46080ED95
:104770000B8ABDEC028B10BD10B52DED068B0446E7
:10478000D4F88806B0F90C0000EE100AB8EEC00AA2
:10479000A248D0ED000A80EE20AAD4F88816B1F91C
:1047A0000400FBF7AEFF41EC190B9FED9D0B53ECA2
:1047B000102BFBF737FF41EC180BFCF703F800EE6A
:1047C000100AF1EE400A9FED981A80EE810ADFEDA3
:1047D000970A10EE20AA04F5806080EDA5AAD4F80F
:1047E0008806B0F90E0000EE100AB8EEC00A904834
:1047F000D0ED000A80EE20AAD4F88816B1F90600A0
:10480000FBF77FFF41EC190B9FED8A0B53EC102B4C
:10481000FBF708FF41EC180BFBF7D4FF00EE100A82
:10482000F1EE400A9FED801A80EE810ADFED7F0AEB
:1048300000EE20AA04F5806080EDA6AA7F480078EB
:10484000E8B97F48008800F40070C0B9D4F8880641
:10485000808A00F4007090B104F5C460D0ED040AC1
:104860009FED781A70EE810AB0EE600AFCF7AEFC9C
:10487000754880ED000A0120704908703EE06F48DD
:10488000007801283AD16E48008800F4007028B9F9
:10489000D4F88806808A00F40070B8B904F5C460C2
:1048A000D0ED040A684890ED001A71EE600AB0EE8F
:1048B000600AFCF78BFCB0EE408AFCF720FCDFEDD1
:1048C000630AB4EEE00AF1EE10FA17D200205B4959
:1048D000087004F5C460D0ED040A5B4890ED001A3E
:1048E00071EE600AB0EE600AFCF770FC04F58060BF
:1048F000D0EDA50A30EE200A80EDA50A4F480078D9
:1049000001280AD104F5806090EDA50ADFED500A78
:1049100030EE200A80EDA50A00E000BFD4F888063A
:10492000808A4749088004F5806090EDA90AD0ED9F
:10493000A50A30EE200A80EDA90A90EDAA0AD0ED72
:10494000A60A30EE200A80EDAA0AD0EDA90AB0EE40
:10495000600AFCF73BFC04F5806080EDA90ADFEDFE
:104960003D0A9FED3D0A04F5D560FCF7DDFBDFED68
:10497000390A9FED390A04F5D560FCF7D5FB04F53B
:10498000806090EDAA1AF0EE410A04F5CA6090ED3D
:10499000061AB0EE410A04F1F80000F079F904F5C6
:1049A000806080EDB00A90EDB01AF0EE410A04F597
:1049B000CA6090ED0A1AB0EE410A04F5727008F070
:1049C0004FFC04F2C46080ED010A04F5806090EDB4
:1049D000A91AF0EE410A04F5C46090ED041AB0EE95
:1049E000410A04F5B87000F053F904F5806080EDD9
:1049F000AF0A90EDAF1AF0EE410A04F5C46090EDF5
:104A00000A1AB0EE410A04F5547008F029FC04F5C6
:104A1000806080EDB10ABDEC068B10BDC0010020A6
:104A20000000000000C8B94000003443DA0F4940DC
:104A3000C40100200000000000C8C940D0010020CF
:104A4000D2010020DB0F4940C8010020CDCCCC3D75
:104A5000A69BC43BCDCCCCBE6666263F10B50446B3
:104A60009FED7B3ADFED7B2A9FED7B2AF6EE001A65
:104A700003230A2211469FED791ADFED790AB2EE7F
:104A80000E0A04F1F80008F02FFD9FED713ADFEDFA
:104A9000752A9FED712AF6EE001A03230A221146A9
:104AA0009FED711ADFED6E0AB2EE0E0A04F180007E
:104AB00008F01AFD9FED663ADFED6A2A9FED662A3F
:104AC000F6EE001A0323002209219FED681ADFED9C
:104AD000640AB0EE000A04F5B87008F005FD012381
:104AE00000220A21B2EE041ADFED5D0AB2EE040ADA
:104AF00004F5F47008F0B6FC012300220A219FEDB2
:104B0000581ADFED570AB7EE000A04F5A66008F060
:104B1000A9FC0123002241F288319FED511ADFEDFB
:104B2000500A9FED530A04F5B56008F09BFC012381
:104B30000A2211469FED4A1ADFED490A9FED4D0A00
:104B400004F5187008F08EFC012341F2883246F219
:104B5000A8119FED461ADFED420A9FED470A04F5C2
:104B6000547008F07FFC012341F2883246F2A8110C
:104B70009FED3B1ADFED3A0A9FED400A04F5727093
:104B800008F070FC012341F2883246F2A8119FED33
:104B9000341ADFED330A9FED3A0A04F5976008F006
:104BA00061FC012341F2883246F2A8119FED2C1AD4
:104BB000DFED2B0A9FED330A04F5886008F052FC04
:104BC00040F205210120FFF7B5FBC4F8200640F2B2
:104BD00006210120FFF7AEFBC4F8500607F050FF96
:104BE000C4F8800607F048FFC4F8840607F048FFC1
:104BF000083040F22461085107F042FF40F254614E
:104C0000085107F039FF08304FF4C561085107F02B
:104C100033FF4FF4CB610851FFF7E4FBC4F888067B
:104C20009FED190A04F5C46080ED050A9FED170A8F
:104C3000303080ED050A9FED0A0A04F5806080EDB2
:104C4000B10A9FED070A04F2C46080ED010A10BDAD
:104C500017B7D1383333733FCDCC4C3D000096436A
:104C6000000000008FC2753F0000FA4300001644A8
:104C70000000164500007A4400C0DA4500409C451B
:104C800000409C4600A00C46C3F548C09A99993E46
:104C900010B52DED0A8B0446B0EE408AF0EE608A26
:104CA00084ED0D8AC4ED0C8A94ED0C0AD4ED0D0A46
:104CB00030EE600A84ED080AD4ED080AB0EE600A0E
:104CC000FCF784FA84ED080A94ED080AD4ED160A7C
:104CD000B4EEE00AF1EE10FA0FD294ED080AD4ED2A
:104CE000160AF1EE600AB4EEE00AF1EE10FA04DD05
:104CF0009FEDEA0ABDEC0A8B10BDE06B012866D17E
:104D000094ED000AD4ED080A20EE200A10EE101AE5
:104D10000846FBF714FDC4E9040194ED010AD4ED43
:104D20000B0A20EE200A84ED060A94ED080AD4ED61
:104D3000090A30EE600AD4ED020A20EE200A84ED62
:104D4000070A94ED0B0AD4ED080A30EE200A84ED30
:104D50000B0A9FEDD30A04F12C0002F003FAD4ED04
:104D6000110AB0EE600A04F1180002F0FBF994EDAC
:104D7000070A10EE101A0846FBF7E1FC41EC1A0B8B
:104D800094ED060A10EE101A0846FBF7D8FC41EC29
:104D90001C0B94ED041BB0EE410AF0EE610A53ECDB
:104DA000102BFBF726FB41EC1B0B53EC1A2BFBF7EC
:104DB00020FB41EC190BFBF705FDA063D4ED100AB5
:104DC000B0EE600A04F1380002F0CCF95AE1E06B71
:104DD000022873D194ED080AD4ED090A30EE600A76
:104DE000D4ED000A20EE200A10EE101A0846FBF758
:104DF000A6FCC4E9040194ED010AD4ED080A20EEF2
:104E0000200A84ED060A94ED080AD4ED090AB0EEF2
:104E1000001A01EE600AD4ED0A0A30EE200AD4ED41
:104E2000020A20EE200A84ED070AD4ED110AB0EE42
:104E3000600A04F1180002F095F994ED070A10EEEB
:104E4000101A0846FBF77BFC41EC1A0B94ED060A9E
:104E500010EE101A0846FBF772FC41EC1C0B94EDA7
:104E6000041BB0EE410AF0EE610A53EC102BFBF785
:104E7000C0FA41EC1B0B53EC1A2BFBF7BAFA41ECCE
:104E8000190BFBF79FFCA06494ED140AD4ED120AF1
:104E900030EE200A84ED130A94ED130A84ED0E0A15
:104EA000D4ED100AB0EE600A04F1380002F05AF9AD
:104EB00094ED130A84ED140AE4E0FFE7E06B0328A5
:104EC00084D194ED000AD4ED080A20EE200A10EEF9
:104ED000101A0846FBF733FCC4E90401E06D012811
:104EE00006D194ED080AB5EEC00AF1EE10FA53DCD3
:104EF000E06D401C30B994ED080AB5EEC00AF1EE41
:104F000010FA49D3D4ED080AB0EE600A02F0E4F8D2
:104F1000D4ED190AB4EEE00AF1EE10FA08D894EDD7
:104F20000B0AD4ED080A30EE200A84ED0B0A33E0B8
:104F3000D4ED080AB0EE600A02F0CEF8D4ED190AFA
:104F400094ED181A70EE810AB4EEE00AF1EE10FA50
:104F500004DB9FED520A84ED0B0A1DE0D4ED080A34
:104F6000B0EE600A02F0B8F8D4ED180A94ED191A00
:104F700070EE810A30EEC00AD4ED180A80EE201AD5
:104F800084ED1A1A94ED0B0AD4ED1A0A94ED081A5E
:104F900000EE810A84ED0B0A94ED010AD4ED0B0AB0
:104FA00020EE200A84ED060A94ED080AD4ED090AE1
:104FB00030EE600AD4ED020A20EE200AD4ED1B0A7E
:104FC000B7EE001A71EE600A20EE200AD4ED1B0A3B
:104FD00094ED1C1A00EE810A84ED070A94ED070A8D
:104FE00010EE101A0846FBF7AAFB41EC1A0B94EDE1
:104FF000060A10EE101A0846FBF7A1FB41EC1C0B49
:1050000094ED041BB0EE410AF0EE610A53EC102B54
:10501000FBF7EFF941EC1B0B53EC1A2BFBF7E9F90B
:1050200041EC190BFBF7CEFBA06394ED0E0AD4ED17
:10503000100AB4EEE00AF1EE10FA06DD94ED100A63
:1050400084ED0E0A0120E06501E00020E06594EDAA
:105050000E0AD4ED100AF1EE600AB4EEE00AF1EEA9
:1050600010FA09D294ED100AB1EE400A84ED0E0A4E
:105070004FF0FF30E06501E00020E06594ED070AA5
:1050800084ED1C0A94ED090A84ED0A0A94ED080ADD
:1050900084ED090A94ED0E0A2CE6000000000000E1
:1050A00000409C4639490978012912D0017801292C
:1050B0000FD100F5C46191ED060A00F5806181ED24
:1050C000A90A00F5CA6191ED060A00F5806181ED3B
:1050D000AA0A2E490978022915D00178022912D18D
:1050E0002A49097879B100F5C46191ED060A00F505
:1050F000806181EDA90A00F5CA6191ED060A00F50B
:10510000806181EDAA0A017802290DD100211F4A90
:10511000117049B19FED1E0A00F5806181EDA90A69
:105120009FED1B0A81EDAA0A18490978062912D0B9
:10513000017806290FD100F5C46191ED040A00F54C
:10514000806181EDA90A00F5CA6191ED060A00F5BA
:10515000806181EDAA0A0D490978042912D00178ED
:1051600004290FD100F5C46191ED040A00F58061B6
:1051700081EDA90A00F5CA6191ED060A00F580618A
:1051800081EDAA0A0178014A1170704700020020DF
:105190000000000010B50446207860B99FED100AA9
:1051A00004F5806080EDB10A9FED0D0A04F2C46041
:1051B00080ED010A13E02078022803D1204600F098
:1051C000F5F80CE02078012803D1204600F06AF8B9
:1051D00005E02078062802D12046FFF7CDFA10BD61
:1051E0000000000010B50446FEF790FD012803D131
:1051F00000202949086001E0FEF788FD2648006884
:1052000040F2DC51884208DD2078022802D0207864
:10521000032811D1012020700EE0D4F88806C07A4E
:10522000032802D10220207006E0D4F88806C07A54
:10523000012801D106202070D4F88806C07A0328FE
:105240000DD116480068022809D19FED150A04F512
:10525000806080EDA90A9FED120A80EDAA0AD4F8B9
:105260008806C07A022806D0D4F88806C07A0B498E
:105270000968884202D0002007490860D4F88806EF
:10528000C07A022801D100202070D4F88806C07AA4
:105290000249086010BD0000F8010020FC01002058
:1052A0000000000010B504469FED3B0A04F5806045
:1052B00080EDA50A9FED380A80EDA60A90EDA90AB7
:1052C000D0EDA50A30EE200A80EDA90A90EDAA0AD9
:1052D000D0EDA60A30EE200A80EDAA0ADFED2F0AF3
:1052E0009FED2F0A04F5D560FBF71EFFDFED2D0AB9
:1052F0009FED2D0A04F2A460FBF716FF04F5806011
:1053000090EDAA1AF0EE410A04F5CA6090ED061A73
:10531000B0EE410A04F1F80000F0B0FB04F5806043
:1053200080EDB00A90EDB01AF0EE410A04F5CA60C3
:1053300090ED0A1AB0EE410A04F5727007F090FF82
:1053400004F2C46080ED010A04F5806090EDA91AB2
:10535000F0EE410A04F5C46090ED061AB0EE410A81
:1053600004F1800000F08AFB04F5806080EDAF0A54
:1053700090EDAF1AF0EE410A04F5C46090ED0A1A00
:10538000B0EE410A04F5547007F06AFF04F580603E
:1053900080EDB10A10BD000000000000CDCCCCBEF5
:1053A0006666263F3333F3BF3333F33F10B52DED3D
:1053B000068B0446D4F88806B0F90C0000EE100AFB
:1053C000B8EEC00A6248D0ED000A80EE20AAD4F8F8
:1053D0008816B1F90400FBF794F941EC190B9FED25
:1053E0005D0B53EC102BFBF71DF941EC180BFBF791
:1053F000E9F900EE100AF1EE400A9FED581A80EE2E
:10540000810ADFED570A10EE20AA04F5806080EDD6
:10541000A5AAD4F88806B0F90E0000EE100AB8EE7E
:10542000C00A5048D0ED000A80EE20AAD4F88816B1
:10543000B1F90600FBF765F941EC190B9FED4A0B3A
:1054400053EC102BFBF7EEF841EC180BFBF7BAF915
:1054500000EE100AF1EE400A9FED401A80EE810A3C
:10546000DFED3F0A00EE20AA04F5806080EDA6AAD9
:1054700090EDA90AD0EDA50A30EE200A80EDA90A28
:1054800090EDAA0AD0EDA60A30EE200A80EDAA0A15
:10549000DFED370A9FED370A04F5D560FBF744FED0
:1054A000DFED350A9FED350A04F2A460FBF73CFE00
:1054B00004F5806090EDAA1AF0EE410A04F5CA6086
:1054C00090ED061AB0EE410A04F1F800FFF7E0FB98
:1054D00004F5806080EDB00A90EDB01AF0EE410A5C
:1054E00004F5CA6090ED0A1AB0EE410A04F5727034
:1054F00007F0B6FE04F2C46080ED010A04F5806096
:1055000090EDA91AF0EE410A04F5C46090ED061A78
:10551000B0EE410A04F1800000F074F804F58060F8
:1055200080EDAF0A90EDAF1AF0EE410A04F5C460C9
:1055300090ED0A1AB0EE410A04F5547007F090FE9F
:1055400004F5806080EDB10ABDEC068B10BD000053
:10555000C00100200000000000C8B9400000344332
:10556000DA0F4940C40100200000000000C8C94013
:10557000CDCCCCBE6666263F3333F3BF3333F33F27
:1055800008B5FA2009F0C6FB1948FFF767FA2DE0C5
:105590001848FFF76DF817483030FFF769F81448DE
:1055A000FFF7BAF81248FFF71DFE1148FFF77AFD22
:1055B0000F48FFF7EFFD002000900E48A43090ED5B
:1055C000010ABDEEC00A10EE100A82B20A4890ED40
:1055D000B10ABDEEC00A10EE100A81B2002340F2FB
:1055E000FF10FBF7C1FF012009F094FBD0E700009A
:1055F000F0130220101A0220F01702200048704712
:10560000281A022010B52DED0A8B0446B0EE408A10
:10561000F0EE608A84ED0D8AC4ED0C8A94ED0C0ADC
:10562000D4ED0D0A30EE600A84ED080AD4ED080AC4
:10563000B0EE600AFBF7CAFD84ED080A94ED080A93
:1056400010EE101A0846FBF77AF841EC190B9FEDA3
:10565000FB0B53EC102BFBF785F80FD394ED080AE6
:1056600010EE101A0846FBF76AF841EC190B9FED93
:10567000F50B53EC102BFBF78DF804D2B3EE000AB8
:1056800084ED000A03E0B1EE080A84ED000A94ED0F
:10569000080AD4ED160AB4EEE00AF1EE10FA0ED2C2
:1056A00094ED080AD4ED160AF1EE600AB4EEE00AB1
:1056B000F1EE10FA03DD9FEDE50A84ED080AE06BD8
:1056C000012866D194ED000AD4ED080A20EE200AE4
:1056D00010EE101A0846FBF732F8C4E9040194ED05
:1056E000010AD4ED0B0A20EE200A84ED060A94ED9F
:1056F000080AD4ED090A30EE600AD4ED020A20EE61
:10570000200A84ED070A94ED0B0AD4ED080A30EE66
:10571000200A84ED0B0A9FEDCE0A04F12C0001F063
:1057200021FDD4ED110AB0EE600A04F1180001F079
:1057300019FD94ED070A10EE101A0846FAF7FFFF5C
:1057400041EC1A0B94ED060A10EE101A0846FAF70F
:10575000F6FF41EC1C0B94ED041BB0EE410AF0EE99
:10576000610A53EC102BFAF744FE41EC1B0B53EC8F
:105770001A2BFAF73EFE41EC190BFBF723F8A06356
:10578000D4ED100AB0EE600A04F1380001F0EAFC32
:1057900066E1E06B022873D194ED080AD4ED090AA2
:1057A00030EE600AD4ED000A20EE200A10EE101A46
:1057B0000846FAF7C4FFC4E9040194ED010AD4EDE8
:1057C000080A20EE200A84ED060A94ED080AD4EDBA
:1057D000090AB0EE001A01EE600AD4ED0A0A30EEB2
:1057E000200AD4ED020A20EE200A84ED070AD4ED47
:1057F000110AB0EE600A04F1180001F0B3FC94ED58
:10580000070A10EE101A0846FAF799FF41EC1A0B36
:1058100094ED060A10EE101A0846FAF790FF41ECD4
:105820001C0B94ED041BB0EE410AF0EE610A53EC40
:10583000102BFAF7DEFD41EC1B0B53EC1A2BFAF799
:10584000D8FD41EC190BFAF7BDFFA06494ED140AE2
:10585000D4ED120A30EE200A84ED130A94ED130AF7
:1058600084ED0E0AD4ED100AB0EE600A04F138009F
:1058700001F078FC94ED130A84ED140AF0E0FFE7E0
:10588000E06B032884D194ED000AD4ED080A20EEE1
:10589000200A10EE101A0846FAF751FFC4E9040175
:1058A000E06D012806D194ED080AB5EEC00AF1EECC
:1058B00010FA53DCE06D401C30B994ED080AB5EEE7
:1058C000C00AF1EE10FA49D3D4ED080AB0EE600A2E
:1058D00001F002FCD4ED190AB4EEE00AF1EE10FA80
:1058E00008D894ED0B0AD4ED080A30EE200A84EDB6
:1058F0000B0A33E0D4ED080AB0EE600A01F0ECFBCD
:10590000D4ED190A94ED181A70EE810AB4EEE00A8B
:10591000F1EE10FA04DB9FED4D0A84ED0B0A1DE059
:10592000D4ED080AB0EE600A01F0D6FBD4ED180AF7
:1059300094ED191A70EE810A30EEC00AD4ED180AFF
:1059400080EE201A84ED1A1A94ED0B0AD4ED1A0A8F
:1059500094ED081A00EE810A84ED0B0A94ED010A19
:10596000D4ED0B0A20EE200A84ED060A94ED080A15
:10597000D4ED090A30EE600AD4ED020A20EE200AC6
:10598000D4ED1B0AB7EE001A71EE600A20EE200A71
:10599000D4ED1B0A94ED1C1A00EE810A84ED070A6F
:1059A00094ED070A10EE101A0846FAF7C8FE41EC0B
:1059B0001A0B94ED060A10EE101A0846FAF7BFFE0D
:1059C00041EC1C0B94ED041BB0EE410AF0EE610AB1
:1059D00053EC102BFAF70DFD41EC1B0B53EC1A2B7B
:1059E000FAF707FD41EC190BFAF7ECFEA06394ED12
:1059F0000E0AD4ED100AB4EEE00AF1EE10FA06DD5C
:105A000094ED100A84ED0E0A0120E06501E000200B
:105A1000E06594ED0E0AD4ED100AF1EE600AB4EEE2
:105A2000E00AF1EE10FA15D294ED100AB1EE400A38
:105A300084ED0E0A4FF0FF30E0650DE09A999999D8
:105A40009999D9BF9A9999999999D93F00000000DD
:105A500000409C460020E06594ED070A84ED1C0A96
:105A600094ED090A84ED0A0A94ED080A84ED090A06
:105A700094ED0E0ABDEC0A8B10BD000010B52DEDA3
:105A80000A8B0446B0EE408AF0EE608A84ED0D8AFF
:105A9000C4ED0C8A94ED0C0AD4ED0D0A30EE600AC8
:105AA00084ED080AD4ED080AB0EE600AFBF78EFB1D
:105AB00084ED080AE06B012866D194ED000AD4ED6C
:105AC000080A20EE200A10EE101A0846FAF737FEF0
:105AD000C4E9040194ED010AD4ED0B0A20EE200A7A
